:020000040800F2
:1000000068B3012059020008512600087125000834
:100010004D260008990C0008633F0008000000000E
:10002000000000000000000000000000B101000816
:10003000BD11000800000000F50100087D3B00082C
:1000400073020008730200087302000873020008BC
:1000500073020008730200087302000873020008AC
:10006000730200087302000873020008730200089C
:10007000730200087302000873020008730200088C
:10008000730200087302000873020008730200087C
:10009000730200087302000873020008730200086C
:1000A000730200087302000873020008730200085C
:1000B000730200087302000873020008730200084C
:1000C000730200087302000873020008730200083C
:1000D000730200087302000873020008730200082C
:1000E000651F00087302000873020008730200080D
:1000F000730200087302000873020008730200080C
:1001000073020008712B00087302000873020008D4
:1001100073020008730200087302000873020008EB
:10012000730200087302000873020008690F0008D8
:1001300073020008651600087302000873020008C5
:1001400073020008730200087302000873020008BB
:1001500073020008730200087302000873020008AB
:10016000730200087302000873020008730200089B
:10017000730200087302000873020008730200088B
:10018000730200087302000873020008730200087B
:10019000730200087302000873020008DFF80CD035
:1001A00000F0ECFA004800474572000868B30120EF
:1001B000234B19680868B0E8F04F80F309884FF0C6
:1001C000000080F3118870470000000003480068B9
:1001D000006880F3088862B600DF00BF08ED00E029
:1001E000DFF80C00016841F470010160704700BF46
:1001F00088ED00E0EFF30980114B1A681EF0100F34
:1002000008BF20ED108A20E9F04F106008B54FF0CC
:10021000500080F311880CF027FD4FF0000080F3B0
:100220001188BDE8084019680868B0E8F04F1EF072
:10023000100F08BFB0EC108A80F30988704700BF28
:10024000E8000020EFF311804FF0500181F3118896
:10025000704780F31188704706488047064800477A
:10026000FEE7FEE7FEE7FEE7FEE7FEE7FEE7FEE766
:10027000FEE7FEE7853B00089D01000840EA010318
:100280009B0703D009E008C9121F08C0042AFAD24C
:1002900003E011F8013B00F8013B521EF9D2704710
:1002A000D2B201E000F8012B491EFBD270470022B8
:1002B000F6E710B513460A4604461946FFF7F0FF65
:1002C000204610BD10B5044604E00B7800F8013B51
:1002D00003B1491C521EF8D2204610BD421C10F832
:1002E000011B0029FBD1801A704730B5044600205D
:1002F000034600E05B1C934203D2E05CCD5C401BF4
:10030000F8D030BD034611F8012B00F8012B002A6C
:10031000F9D11846704730B505460020034600E085
:100320005B1C934205D2EC5CC85C201A01D1002C06
:10033000F6D130BD2DE9F04791460F468046044680
:10034000002614F8015B2DB100F056F80068405DFE
:10035000C007F6D12B2D02D02D2D18D0641E4A4691
:100360003946204600F055F827B13968A14201D13D
:10037000C7F8008071054FF002040BD540420028F9
:1003800003DD03F0F1FD0460A007BDE8F08746F44B
:100390008066E4E70028F8DA03F0E6FD04606FF019
:1003A0000040F2E770B5064603F0DEFD046805463E
:1003B0000A2200213046FFF7BDFF2C6070BD01F01E
:1003C000004330B421F0004150EA010206D00A0D8A
:1003D000A2F56072C1F31301002A02DC30BC0020D8
:1003E0007047440F44EAC104C100E01830BC00EB80
:1003F000C25000F0ABB800000048704788D6000833
:1004000010B50446FFF7F8FF0068005D00F001003A
:1004100010BD2DE9F05F82460078002715468B4617
:100420000AF10104B946302801D09DB113E014F857
:10043000010B0127782803D0582801D045B10AE0E4
:100440000DB1102D07D10027102514F8010B02E083
:10045000082500E00A250026B0460EE005FB08004E
:1004600005FB06F1012701EB10461FFA80F8B6F5EF
:10047000803F00D3B94614F8010B294600F0AFF9CC
:100480000028EBDABBF1000F05D00FB1641E00E0CD
:100490005446CBF80040B9F1000F06D003F064FDDC
:1004A00002210160C81EBDE8F09F48EA0640FAE755
:1004B0000FB4002300B589B00CA900910B996FF01F
:1004C0000042CB601E4B06931E4B07930423CDE9DD
:1004D00001321D4A089202466B46002000F00EFAD7
:1004E00009B05DF814FB70B586B006464FF0FF30DA
:1004F0000091CDE90101002015460C4604903246DA
:10050000694604A8FFF7D4FF03460498211825B1D3
:1005100008B10A4600E022462A6000280DD0002BD0
:1005200002DD0098884208D0081B0094CDE9010440
:100530003246694604A8FFF7BBFF06B070BD000055
:10054000350B0008530B0008010400080029A8BF60
:100550007047401C490008BF20F00100704710B4EC
:10056000B0FA80FC00FA0CF050EA010404BF10BCA1
:10057000704749B1CCF1200421FA04F411FA0CF1CE
:1005800018BF012121430843A3EB0C01CB1D4FEA07
:1005900000614FEA102042BF002010BC704700EB02
:1005A000C35010440029A4BF10BC7047401C490030
:1005B00008BF20F0010010BC70472DE9FE4F81EA12
:1005C000030404F0004421F0004100944FF0000BBC
:1005D00023F0004350EA01045ED052EA03045BD0EA
:1005E000C3F30A54C1F30A552C44A4F2F334019422
:1005F000A0FB0254C1F3130141F48011C3F31303B0
:1006000043F4801301FB024400FB034E840A970A63
:1006100044EA815447EA8357A4FB076802958D0A90
:1006200005FB07854FEA932C04FB0C542705029D1C
:100630004FEA065847EA1637B5EB08056EEB070C8C
:10064000870E920E47EA811742EA8312A7FB020146
:10065000B6EB0B0164EB00042B0D43EA0C335E1880
:1006600044EB1C50DA465146E7FB0201C5F3130484
:100670004FEA0B3343EA14534FEA0432019C43EA36
:100680000603A4F10C040294009CCDE900B400F030
:100690007EFA03B0BDE8F08F00200146F9E72DE9AE
:1006A000F04D81EA030404F0004B21F000451446AC
:1006B0004FF0000A23F0004150EA050220D054EA2E
:1006C00001021DD0C5F30A570246C5F31303C1F357
:1006D0001300C1F30A5640F4801543F48013A7EBCE
:1006E0000608101BD64608F2FD3873EB050002D34E
:1006F00008F1010801E092185B41B8F1000F03DA3C
:1007000000200146BDE8F08D00204FF48011064620
:1007100084460EE0171B73EB050705D3121B63EB32
:10072000050306434CEA010C49084FEA30009218D1
:100730005B4150EA0107EDD152EA030012D082EA90
:10074000040083EA0501084305D0101BAB4106D223
:100750000122002306E000224FF0004302E06FF088
:10076000010253101AEB06004CEB085110EB0A0083
:1007700041EB0B01BDE8F04D00F0FCB9064C074D14
:1007800006E0E06840F0010394E807009847103461
:10079000AC42F6D3FFF706FD84D70008A4D70008C3
:1007A000202A04DB203A00FA02F100207047914031
:1007B000C2F1200320FA03F3194390407047202A26
:1007C00004DB203A21FA02F00021704721FA02F3FB
:1007D000D040C2F1200291400843194670473A28A0
:1007E00000D2303820F02002412A01D3A2F1370094
:1007F000884201D34FF0FF30704700002DE9FF4FD2
:10080000087881B09946FF2805D0491C2D2804D0CE
:100810000024002308E000230BE00124F9E703EBA8
:10082000830300EB4303491C0878FF28F7D104B188
:100830005B4200200090147801462D2C01D02B2C17
:1008400004D1521C2D2C12D00024009400251678BF
:10085000FF2E0ED00A24A0FB04C801FB0481002750
:1008600000FB0711521C16EB0C006941EFE7012455
:10087000EBE7994450EA01020ED00024AA4D264627
:10088000DFF8A88200F0D1F982468B46B9F100006A
:1008900009DAC9F100071BE001980021C0E9001145
:1008A00005B0BDE8F08F074612E0F80707D02246F2
:1008B0002B4630464146FFF780FE064688462246D4
:1008C0002B4610461946FFF778FE04460D467F106A
:1008D000002FEAD1B9F1000F32464346504659463F
:1008E00002DAFFF7DCFE01E0FFF767FE009A0AB1CB
:1008F00081F00041019AC2E90001D1E72DE9FF4FE3
:100900001F468DB0D7E901464FF0FF382E204546EF
:100910004FF000090B90B9696D1C0E988847396A31
:10092000824688470028F6D1BAF1FF3F0AD024F466
:10093000D064002E11DDBAF12B0F08D0BAF12D0FC3
:100940000BD102E0404611B0ABE744F48064B969D2
:100950006D1C0E9888478246761E6946600501D553
:100960002D2000E02B208DF8000001F1010B0DF18E
:10097000200809E0B9696D1C0E98884782460F98D7
:1009800044F40074761E0560002E02DDBAF1300FCB
:10099000F0D00B998A453ED144F0800406E00F99CF
:1009A000681CA9F1010944F400740860B9696D1C60
:1009B000761E0E98884782463028F0D02BE00B999F
:1009C0008A4505D1200603D444F08004761E18E041
:1009D000504603F005FB08B30DF11301761E44F4F5
:1009E00000748B4508D2AAF130000BF8010B2006E9
:1009F00007D5A9F1010003E0200602D409F10100A6
:100A00008146A00502D50F99681C0860B9696D1C64
:100A10000E9888478246002ED1DC53E0002E51DD2F
:100A2000BAF1650F02D0BAF1450F4BD1A00549D5F7
:100A3000B9696D1C24F44074761E0E98884782466E
:100A4000002E0CDD2B2804D0BAF12D0F07D144F471
:100A50008074B9696D1C0E9888478246761EE00541
:100A600001D52D2100E02B2108F8011BCDF82C80A9
:100A700021E00DF12901761E44F4007488450CD262
:100A8000AAF1300010F0FF0088F8000002D10B99A5
:100A9000884509D908F1010806E0E00501D5244898
:100AA00001E042F20F708146B9696D1C0E988847CB
:100AB00082460F980560002E04DD504603F090FA40
:100AC0000028D6D1F9690E988847FF208BF80000DE
:100AD00088F800000020069007904B466A4608A957
:100AE00006A8FFF78BFEA00502D46FF001002AE7ED
:100AF00014F0240F0AD0E00714D1DDE9061238689B
:100B0000031D3B600068C0E900120BE0DDE906014F
:100B1000FFF755FC0146E00704D13868021D3A6032
:100B20000068016028460EE7000024400000F03F06
:100B3000F1D8FFFF426842B1016811F8013B23B1CF
:100B4000521EC0E90012184670470121C160881E7C
:100B5000704742685AB1C368016843B983688B42E1
:100B600005D0491E521CC0E90012002070474FF00A
:100B7000FF30704710B5002B08DA401C41F100012E
:100B800092185B411A4301D120F0010010BD2DE9FC
:100B9000F04D92469B4611B1B1FA81F202E0B0FAF3
:100BA00080F220329046FFF7FBFD04460F4640EAF4
:100BB0000A0041EA0B0153465A46084313D0114636
:100BC00053EA010019D0C8F140025046FFF7F7FD83
:100BD00005460E46504659464246FFF7E1FD08439A
:100BE00005D0012004E020463946BDE8F08D002004
:100BF000054346EAE0762C4337430A986305E40A46
:100C0000A0EB08000022FD0A44EA47540A3002D54E
:100C100000200146E9E7010510196941DDE90845B1
:100C200000196941BDE8F04DA4E70EB540F233422A
:100C300002920022CDE900221346FFF7A8FF03B07D
:100C400000BD70B58C1810F8015B15F0070301D1D9
:100C500010F8013B2A1106D110F8012B03E010F81F
:100C6000016B01F8016B5B1EF9D12B0705D4002342
:100C7000521E0DD401F8013BFAE710F8013BCB1AE4
:100C8000921C03E013F8015B01F8015B521EF9D5D9
:100C9000A142D8D3002070BD00BFFEE770B500258B
:100CA0004FF4803400E0641E24B1802001F034FF52
:100CB0000028F8D014B90325284670BD40F2FF5033
:100CC00001F0E6FE2846F8E72DE9F0410646002748
:100CD0004848056801E04748056805F045000028D8
:100CE000F9D005F0040030B10327042001F0D0FE54
:100CF0003846BDE8F08105F0010028B10127012048
:100D000001F0C6FE3846F4E701F000FFB04202D021
:100D100010273846EDE740F2FF5001F0B9FE002001
:100D200001F01AFF04463448204008B93846E0E78D
:100D300004F0004008B11C20DBE704F0804008B15B
:100D40000920D6E704F0005008B10A20D1E704F0EA
:100D5000805008B10B20CCE704F0006008B10C20F3
:100D6000C7E704F0806008B10D20C2E704F080708E
:100D700008B10E20BDE704F4000008B10F20B8E769
:100D800004F4800008B11020B3E704F4001008B1A7
:100D90001120AEE704F4801008B11220A9E704F492
:100DA000002008B11320A4E704F4802008B1142027
:100DB0009FE704F4003008B115209AE704F480306E
:100DC00008B1162095E704F4004008B1172090E719
:100DD00004F4804008B118208BE704F4005008B1F7
:100DE000192086E704F0080008B11A2081E7384688
:100DF0007FE70000342C014008E0FFFD70B50025BE
:100E00001048046801E00F48046804F04500002819
:100E1000F9D004F0040028B10325042001F038FEC5
:100E2000284670BD04F0010028B10125012001F021
:100E30002FFE2846F5E740F2FF5001F029FE284634
:100E4000EFE70000342C014070B500250B48046822
:100E500001E00A48046804F045000028F9D004F0D5
:100E6000040028B10325042001F012FE284670BDBD
:100E700040F2FF5001F00CFE2846F8E7342C014008
:100E80002DE9F04106460F464FF00008224805685C
:100E900001E02148056805F045000028F9D005F07B
:100EA000040038B14FF00308042001F0F1FD404682
:100EB000BDE8F08105F0010030B14FF001080120DC
:100EC00001F0E6FD4046F3E701F020FEB04203D01A
:100ED0004FF010084046EBE740F2FF5001F0D8FD1C
:100EE000002001F039FE044604F4604018B9200CDB
:100EF00038804046DCE704F4005008B11320D7E7FF
:100F000004F4804008B11020D2E704F4004008B196
:100F10000F20CDE74046CBE7342C014070B50026CA
:100F20004FF480350F48046802E06D1E0D480468D8
:100F300004F0450008B9002DF7D115B104F0040004
:100F400028B10326042001F0A3FD304670BD04F053
:100F5000400028B10026402001F09AFD3046F5E718
:100F60003046F3E7342C014010B502F0E9FA10BD29
:100F70000246094B9A4201D2084801E0064810385F
:100F800001F000531BB1064B0B40C36002E0044B61
:100F90000B40836070470000106402400060024014
:100FA0007D0F7D0F21B1026842F00102026003E073
:100FB000026822F00102026070470000016821F01F
:100FC000010101600021016041608160C160016137
:100FD000212141614A49884204D13D21484A103AC1
:100FE00091608CE046491831884205D14FF4746114
:100FF000434A103A916082E041493031884205D13C
:101000004FF474113E4A103A916078E03C494831FF
:10101000884205D14FF07461394A103A91606EE010
:1010200037496031884204D13649354A103AD16097
:1010300065E033497831884204D13349304A103A67
:10104000D1605CE02E499031884204D12F492C4A6E
:10105000103AD16053E02A49A831884205D14FF0B7
:101060003D51274A103AD16049E02949884204D1CC
:101070003D21274A083A116041E02549183188424C
:1010800005D14FF47461224A083A116037E02049D3
:101090003031884205D14FF474111D4A083A11606D
:1010A0002DE01B494831884205D14FF07461184A40
:1010B000083A116023E016496031884204D1114991
:1010C000134A121F11601AE011497831884204D185
:1010D0000D490F4A121F116011E00D4990318842ED
:1010E00004D10A490A4A121F116008E00849A831D0
:1010F000884204D14FF03D51054A121F11607047DC
:10110000106002403D000020400F002000003D2004
:101110001064024021B1026842F02002026003E044
:10112000026822F020020260704710B501F08003CF
:101130004BB122B1436943F08003436103E043694B
:1011400023F08003436180290BD02AB1036801F0AA
:101150001E042343036004E0036801F01E04A3435C
:10116000036010BD10B500220268134B1A40CC6812
:101170000B6823434C6923438C692343CC69234385
:101180000C6A23434C6A23438C6A23434C6B2343EE
:101190008C6B23431A430260426922F00702D1E9B3
:1011A0000B3423431A4342610B6943604B688360ED
:1011B0008B68C36010BD00003F801CF0704710B505
:1011C000044620460BF096FB10BD00001FB500F052
:1011D00009F900F0E9FC00F055FC0121002000F0C5
:1011E0005BFD00F0040028B11648006840F01000D4
:1011F00014490860002000F099FF00F033FF124806
:10120000006880B90322002101200BF0EBFD0E499C
:1012100008600846006830B100231A4619460A489B
:1012200000680BF0E5FE00200323CDE900300290BA
:1012300003464FF4807205A1039006480BF0C8FFE7
:101240001FBD00003401002038010020455F6C699B
:101250006E6B0000DD200008014948617047000006
:101260000090024029B1064AD2690243044BDA6178
:1012700004E0034AD2698243014BDA6170470000FF
:101280000090024030B10749896941F00201054AE6
:10129000916105E00349896921F00201014A9161E8
:1012A000704700000090024070B50C4613460021C4
:1012B000124D286000BF18E000EB41124FF00045CE
:1012C000156044F2F4555560C1EBC11505EB4505B9
:1012D00004EB850595605D1E8D4204D900EB411538
:1012E0002035D56000E0D060491C9942E4D3044D1C
:1012F000E860044D044E356070BD0000D800002049
:101300000090024050870020DC00002021B142689C
:1013100022F00042426003E0426842F00042426034
:101320007047000030B10749896941F40051054A0E
:10133000916105E00349896921F40051014A9161F5
:10134000704700000090024030B50C461346002163
:101350000F4D286000BF15E000EB41124FF48015DF
:101360001560C1EBC11505EB450504EB85059560DE
:101370005D1E8D4204D900EB41152035D56000E09B
:10138000D060491C9942E7D3024D286130BD00006E
:10139000D40000200090024002680A4302607047B7
:1013A00010B50121480601F0C9F900214FF0007085
:1013B00001F0C4F910BD000008B5002000900848F5
:1013C000806940F480100649886108468069009071
:1013D0000120FFF7F4FE02490098886108BD000073
:1013E000009002400EB50121EF2001F097F9012194
:1013F000880301F0C3F94FF48070019003208DF849
:10140000090002208DF8080000208DF80A008DF8F0
:101410000B0001A93C4801F033F800214FF4800093
:1014200001F040FA012002F0FFFA8620019001A9A4
:10143000354801F025F80B220121334801F068F806
:101440000B220221304801F063F80B2207212E48BD
:1014500001F05EF84FF40060019001A92B4801F003
:101460000FF80B221146294801F052F83220019062
:1014700001A9274801F004F80B220121244801F0BA
:1014800047F80B220421224801F042F80B220521E3
:101490001F4801F03DF84FF4C040019001A91D48DC
:1014A00000F0EEFF0B220D211A4801F031F80B225B
:1014B0000E21184801F02CF84FF400600190012033
:1014C0008DF8080001A9144800F0DAFF4FF400611C
:1014D000114801F049F80020009002E00098401CFB
:1014E000009000986428F9DB4FF400610A4801F08D
:1014F0003DF80020009002E00098401C0090009809
:10150000B0F57A7FF8DB0EBD000002400004024017
:101510000008024000180240000C02400146002072
:10152000034A52690A400AB1012000E000207047D6
:101530000090024000200449096801F0010109B14E
:10154000012000E000207047009002400FB500210C
:10155000019102910391009170E00099491C009162
:101560003E490968096801F40071A1B13B49096865
:10157000096801F4807171B938490968384A1268FC
:1015800011600121364A1268916034490968C968BE
:10159000324A116052E031490968096801F48071EA
:1015A00091B92E490968096801F4007161B92C49A3
:1015B00009688968491C2A4A1268916027490968A4
:1015C000C968264A116039E024490968244A12682A
:1015D0005160234909688968491C214A1268916051
:1015E0001F4909688968012904D11C4909681C4AF6
:1015F00012681160194909680968C1F30D41091F92
:101600000191174909688968012905D914490968B0
:1016100009688968029103E01049096889680291A4
:101620000F490968096803910C490968C9680B4AA0
:10163000116001A90EC980E80E000FBD07490968B5
:10164000096801F0004111B90099042985D301A965
:101650000EC980E80E0000BFEFE70000D8000020B0
:10166000DC00002008B5002000904020FFF756FF66
:10167000012806D100236A461946094800680BF084
:101680002EFD4020FFF7E8FD4FF48030FFF7E4FD2A
:10169000009818B1009808B10BF024F908BD0000BB
:1016A000B00000202DE9F04188B0044688460027AC
:1016B000002500200790CE4E029001200190CD48D9
:1016C000056925F01C0503A801F078F8049ECA48B6
:1016D000864205D3C948864202D245F008051AE081
:1016E000C648864205D3C248864202D245F00C0560
:1016F00011E0BF48864203D3C148864200D20AE0C7
:10170000BF48864205D3BF48864202D245F0040551
:1017100001E045F01005B74805614FF40042002193
:10172000404600F073FB10B9002001909CE0FF20C0
:10173000FFF745FD2068002871D000BF0298401CCB
:1017400002900121404600F0A7FA00F0040020B901
:1017500048F6FF7102988842F0D348F6FF7102986C
:10176000884202D1002001907EE0002002904FF4D8
:1017700080520021404600F049FB08B9002001904A
:1017800000BF0298401C02900121404600F084FAFC
:1017900000F0200020B948F6FF7102988842F0D38B
:1017A00048F6FF710298884202D1002001905BE068
:1017B000002002900221404600F06EFA0546032107
:1017C000404600F069FA07462D044FF6F07107EA2B
:1017D000010005438C48854206D08CA002F0C0FB76
:1017E000002008B0BDE8F08129468EA002F0B8FBC9
:1017F0000121404600F050FA074607F4804028B126
:101800004FF400602062C00060612CE007F40050DB
:1018100030B1002020624FF48040606123E00FE08F
:1018200007F4805028B14FF400602062002060610E
:1018300019E007F40060B0B100202062606112E09E
:10184000206AC0F3CF006169C1F34F0140EA010291
:101850000021404600F0DAFA08B90020019040F675
:10186000FF70FFF7ACFC00BF019820B94FF4006097
:101870002062C00060615F48056872480540D4E995
:1018800001010843E168084321690843616908438D
:10189000A1690843E1690843216A0843616A084372
:1018A000A16A0843E16A0843216B0843616B08435E
:1018B00005435048056005680120FFF780FC4D484E
:1018C0000560D4E90E010843216C0843616C0843AC
:1018D000A16C0843E16C0843216D0843616D084326
:1018E00044494860084645680120FFF768FC4148C4
:1018F00045604049A06D8860E06DC8600846856914
:101900004FF641700540B4F86010606E40EA014047
:10191000A16E0843E16E0843216F0843616F0843DD
:1019200005433448856185690120FFF748FC31484B
:101930008561D4E91E0108432E49C8610846C5697E
:101940000120FFF73CFC2B48C5613F4885693F48B3
:101950000540D4E920010843D4F888100843D4F89E
:101960008C100843D4F890100843D4F8941008431E
:10197000D4F898100843D4F89C100843D4F8A01069
:10198000084305433048856185690120FFF717FC4E
:101990002D488561D4E929010843D4F8AC100843E7
:1019A000D4F8B0100843D4F8B41040EA8100D4F859
:1019B000B810084340F40000234908600846056851
:1019C0000120FFF7FCFB20480560006840F0800024
:1019D0001D490860084605680120FFF7F0FB1A481A
:1019E00005600198012800D1FBE60020F9E600001F
:1019F0000087930300800240002D3101C00E1602C3
:101A000000E1F50580D1F008F0C00700526561647F
:101A100020504859204944202D204641494C4544F6
:101A20000A0D000052656164205048592049442045
:101A3000284C414E3837323029202D204F4B0A0D8B
:101A4000000000000F8120FF00900240233FDEF8DD
:101A500010B50B794C7943EA0422094B03441A640C
:101A6000CB781B068C7843EA04434C7843EA042382
:101A70000C7843EA0402024B03445A6410BD000090
:101A80000080024010B501214FF0606000F046FE7A
:101A9000FFF786FC00F036F900BFFFF74BFD012889
:101AA000FBD0204800F058F901201E4908600020B2
:101AB000C8614FF4007088620020C862886348647F
:101AC000C864086548654FF4806048620020C1F82A
:101AD00080004FF00070C1F884000011C1F88C0044
:101AE0000020C1F89400C1F898000420C1F8A000BB
:101AF000C005C1F8A4004012C1F8A8008001C1F8D7
:101B0000AC004012C1F8B0004000C1F8B80000219C
:101B10000448FFF7C7FD0449086001210348FFF7A7
:101B2000A1FB10BDA8780120340100204000010075
:101B300038B504460020009034B10B48006840F0EE
:101B400004000949086005E00748006820F0040027
:101B5000054908600448006800900120FFF72FFB4A
:101B600001490098086038BD0080024038B504463D
:101B70000020009034B10B48006840F0080009498B
:101B8000086005E00748006820F008000549086083
:101B90000448006800900120FFF711FB01490098FC
:101BA000086038BD0080024008B53D208DF8000077
:101BB0000C208DF8010000208DF8020001208DF826
:101BC0000300684600F046FD08BD000070B50246FF
:101BD0000023002500242E480068006800F0004023
:101BE00008B1002070BD2A48016840F2F4508242DA
:101BF00008DD92FBF0F392FBF0F600FB162010B12B
:101C00005B1C00E00123012B0CD1086840F0405020
:101C10000860C2F30C004860086840F000400860AB
:101C2000C96826E0002422E0086820F040500860DF
:101C30001CB9086840F08050086040F2F4504860D9
:101C4000581EA0420DD1086840F000500860581E90
:101C5000C0EBC01000EB4000A2EB8005C5F30C0008
:101C60004860086840F000400860C968641C9C42F5
:101C7000DAD3074801600748406900F0040020B14A
:101C80000420044E7061002070600120AAE700006B
:101C9000D40000200090024018B502460B460021F7
:101CA000002000901648016901F01C014FF47840B3
:101CB00000EAC22001434FF4F86000EA83100143B8
:101CC00021F0020141F001010D48016100BF0098BF
:101CD000401C00900A48016901F0010020B148F65B
:101CE000FF740098A042F2D348F6FF740098A04217
:101CF00001D1002018BD0248406980B2FAE7000017
:101D0000008002400348006840F00100014908607B
:101D1000704700000090024010B50120FFF726FF39
:101D20000120FFF705FFFFF747FB0120FFF7FAFA55
:101D30000120FFF7A7FA10BD10B50020FFF7F2FA57
:101D40000020FFF79FFA0020FFF7F2FEFFF734FBB9
:101D50000020FFF70BFF10BD012101600021416051
:101D60008160C16001614FF4804141610021816166
:101D7000C1614FF400610162002141628162C16270
:101D8000016341638163C163402101642021416497
:101D900000218164C164016541658165C165016699
:101DA0008021416600218166C166016741678167C4
:101DB000C1674FF08061C0F880104910C0F88410EE
:101DC0000021C0F888104FF40011C0F88C100021D9
:101DD000C0F89010C0F89410C0F89810C0F89C108B
:101DE000C0F8A0104FF00071C0F8A4104912C0F85C
:101DF000A8108901C0F8AC104912C0F8B010002139
:101E0000C0F8B410C0F8B8107047000038B50346E9
:101E10000C460021002000901448016901F01C01CB
:101E20004FF4784000EAC32001434FF4F86000EA21
:101E30008410014341F0020141F001010B4842616D
:101E4000016100BF0098401C00900848016901F042
:101E5000010018B1064D0098A842F3D3044D009834
:101E6000A84201D1002038BD0120FCE700800240DB
:101E7000FFFF040070B586B0064600200590019073
:101E800096F83100C0F3001000285AD0304800689E
:101E9000002843D0002005904FF4805200210846CE
:101EA000FFF7B4FF00BF0598401C059001210020FA
:101EB000FFF7F2FE00F0200020B948F6FF71059808
:101EC0008842F0D3002005901021FFF7E5FE04467C
:101ED00004F0040020B14FF400601D49086202E0E4
:101EE00000201B49086204F0020018B100201849C4
:101EF000486103E04FF48040154948611548056882
:101F0000134840691249096A0843054311480560AE
:101F10000120FFF754F90F4805680560FFF7FCFE44
:101F20000D4804906FF07F4003900C48029002AB84
:101F300003AA04A90A4805F0ECFC094805F0AEFD27
:101F400004E0FFF7F9FE064805F000FD06B070BD9D
:101F5000A878012000800240C0A80089C0A8000124
:101F60006479012008B5002000904FF4804000F013
:101F70001BF830B100236A461946074800680BF089
:101F8000AEF84FF4804000F009F8009818B10098BE
:101F900008B10AF0A7FC08BD38010020014908601B
:101FA00070470000143C0140014600200022074B0E
:101FB0001B6803EA0102054B14331B680B4013B185
:101FC0000AB1012000E0002070470000003C014001
:101FD000002123498279002A3AD00A461268036810
:101FE0009A430B461A600A1D126803689A430B1D38
:101FF0001A60027911440A6803681A430A60184A91
:102000000832126803689A43154B08331A601A1D88
:10201000126803689A43124B0C331A604279102AF3
:102020000ED11A1F126803681A430D4B08331A6049
:102030001A1D126803681A43094B0C331A600DE02D
:102040000749427911440A6803681A430A6005E0A7
:10205000027911440A6803689A430A6070470000D5
:10206000003C014000B585B00121022000F056FB84
:102070000121880300F082FB00208DF810008DF80C
:1020800013004FF48040039003A9134800F0F8F9BF
:102090000E21012001F0CEFC4FF480400190002081
:1020A0008DF808000C208DF8090001208DF80A0039
:1020B00001A8FFF78DFF28208DF800000D208DF876
:1020C000010000208DF8020001208DF80300684611
:1020D00000F0C0FA05B000BD0004024004462546E9
:1020E00000BF0023642219460E4800680AF0A8FECB
:1020F0000128F6D1A8B21221FFF7CEFD00F400505E
:102100000028EED0A8B21021FFF7C6FD00F00100B4
:1021100018B1054805F092FCE3E7034805F079FCA7
:10212000DFE70000380100206479012070B5054622
:10213000002411212846FFF7AFFD044644F00304B4
:10214000224611212846FFF761FE08B9002070BD24
:1021500012212846FFF7A0FD044644F02004224641
:1021600012212846FFF752FE08B90020EFE70120B0
:10217000EDE7000010B5024600200023102A03D12D
:102180004FF02044636E0FE0B2F5807F02D10A4C1D
:10219000236809E0B2F5805F03D1074C203423683F
:1021A00002E0054CD434236803EA01048C4201D0D8
:1021B000002000E0012010BD840000A00021D0E933
:1021C00000231A4383685B1E42EA4312C36842EA53
:1021D0004321014A11607047500100A070B50021F1
:1021E000002200230024D0E901563543C668354358
:1021F000066935434669354386693543C6693543C3
:10220000066A3543466A45EA0601056835B9056838
:10221000AD00A5F1C045C5F840110DE0D0E9075665
:102220003543466A45EA0603294D2B600568AD0033
:10223000A5F1C045C5F84011056835BB856A2D6814
:102240006D1E866A7668761E45EA0616856AAD6852
:102250006D1E46EA0526856AED686D1E46EA05365E
:10226000856A2D8A6D1E46EA0546856AAD8A6D1E11
:1022700046EA0556856A2D7E6D1E46EA0562144DB6
:102280000835066845F8262020E0856A2D686D1E11
:10229000866A7668761E45EA0616856AAD686D1E02
:1022A00046EA0526856A2D8A6D1E46EA0542856A3C
:1022B000ED686D1E2E03856AAD8A6D1E46EA0554D3
:1022C000034D08352C60066845F8262070BD0000D7
:1022D000400100A00449096841EA40014FF0204252
:1022E000C2F8541170470000540100A02DE9FC41D0
:1022F00007460D460026002400200090019008208B
:102300005B49086010204860402088600020C86059
:102310004FF480600861084600F05CFC1020FEF776
:10232000D3FC044614B12046BDE8FC815148008826
:1023300000044F4908603720486040208860002032
:10234000C8604FF480600861084600F043FC372005
:10235000FEF7BAFC04460CB12046E5E74FF0FF302B
:102360004549086008204860302088600220C86025
:102370000020086101204861084600F0A1FB002010
:102380003B49086033204860402088600020C860D6
:102390004FF480600861084600F01CFC3320FEF713
:1023A00093FC04460CB12046BEE709E04FF4001050
:1023B00000F0B2FB20B100F007FC4DF82600761CBF
:1023C0002E48006840F22A6108400028EED008201C
:1023D00000F0A2FB28B1082000F05AFB042420469C
:1023E000A2E7022000F098FB28B1022000F050FB89
:1023F0000224204698E7202000F08EFB28B1202000
:1024000000F046FB062420468EE74FF4007000F0F3
:1024100083FB30B14FF4007000F03AFB07242046F4
:1024200082E740F2FF5000F033FB0098000600996D
:1024300001F47F4140EA0120009901F47F0140EA64
:102440001120009940EA1160686001980006019926
:1024500001F47F4140EA0120019901F47F0140EA43
:102460001120019940EA1160286020465CE70000D5
:1024700038AB0120440100204CAB0120342C01403A
:10248000F0B50A4600210023002400BF3DE00125ED
:1024900005FA01F3156805EA03049C4234D1056886
:1024A0004F000326BE40B543056015794E00B54088
:1024B0000668354305601579012D02D01579022D86
:1024C00016D185684F000326BE40B5438560557917
:1024D0004E00B540866835438560456801268E40CC
:1024E000B5434560456896798E40B6B23543456040
:1024F000C5684F000326BE40B543C560D5794E0080
:10250000B540C6683543C560491C1029BFD3F0BD2E
:10251000F0B5002300244D07ED0E02FA05F3CE10AE
:1025200000F1200555F826504E07F70E0F26BE4045
:10253000B543CF1000F1200646F82750CE1000F129
:10254000200555F8265045EA0304CE1000F1200579
:1025500045F82640F0BD0246002013690B400BB140
:10256000012000E0002070474183704701837047DD
:1025700000BFFEE700B587B00020039000210846A9
:1025800009F012FE1D48C07801061C48807841EA17
:1025900000411A48407841EA002018490978084368
:1025A00006906FF07F400590154804901548164935
:1025B000002204ABCDE90021029005AA06A9134828
:1025C00005F060F9114805F0B9F9114800681128C3
:1025D0000BD10E4890F8310040F010000B4981F803
:1025E0003100084605F05AFA02E0084805F0AEF955
:1025F0000849064805F00AFA07B000BD3C01002072
:10260000C0A80001F5C100084560000864790120F8
:1026100034010020751E0008132107A009F09EFE5A
:1026200006F048F8FEF7D2FDFFF7A4FF00BF002038
:102630000AF07CF9FBE700000D0A53746172742004
:1026400053544D3332463432390D0A0000BFFEE791
:102650007047000070B5002100230F22C4781CB31E
:10266000174C246804F4E064C4F5E064C4F3072163
:10267000C1F10404E3B20A4144789C40E1B2847899
:10268000144021430C07210E0E4C05786155047847
:1026900004F01F050124AC4005786D11AD0005F173
:1026A000E025C5F8004109E0047804F01F05012485
:1026B000AC40054D0678761145F8264070BD000007
:1026C0000CED00E000E400E080E100E0024901439D
:1026D000024A1160704700000000FA050CED00E0AE
:1026E00008B54FF4C060FFF7F1FF31208DF800000E
:1026F00000208DF801008DF8020001208DF8030004
:102700006846FFF7A7FF3B208DF8000001208DF8F9
:1027100001006846FFF79EFF08BD000029B1064A88
:1027200012680243044B1A6004E0034A12688243B1
:10273000014B1A60704700003038024029B1064A48
:1027400012680243044B1A6004E0034A1268824391
:10275000014B1A60704700001038024029B1064A48
:1027600012680243044B1A6004E0034A1268824371
:10277000014B1A60704700003838024029B1064A00
:1027800012680243044B1A6004E0034A1268824351
:10279000014B1A60704700004438024029B1064AD4
:1027A00012680243044B1A6004E0034A1268824331
:1027B000014B1A607047000024380240F0B5002138
:1027C00000220024022500260223324F3F6807F032
:1027D0000C0121B1042905D0082937D105E02E4F7D
:1027E000076036E02D4F076033E02A4F3F1F3F68F8
:1027F000C7F38056274F3F1F3F6807F03F036EB176
:10280000264FB7FBF3F7DFF88CC0ACF1040CDCF813
:1028100000C0CCF3881C07FB0CF40CE01E4FB7FB88
:10282000F3F7DFF870C0ACF1040CDCF800C0CCF3B7
:10283000881C07FB0CF4174F3F1F3F68C7F3014785
:102840007F1C7D00B4FBF5F7076002E0124F0760C4
:1028500000BF00BF0F4F3F6807F0F0010909104F9C
:102860007A5C0768D74047600A4F3F6807F4E05139
:10287000890A0B4F7A5C4768D7408760054F3F68ED
:1028800007F46041490B064F7A5C4768D740C76040
:10289000F0BD0000083802400024F40040787D01BB
:1028A000C200002002460020044B186820F0EC60B3
:1028B00042EA01031843014B186070470838024090
:1028C000014600BF080900EB8000420001F00F0044
:1028D0001044C0B27047000070B506460C46002593
:1028E0000E4800680E4900EA0105280CE070C5F3A7
:1028F0000420607005F03F00A070C5F342302070E6
:102900005EB9E078FFF7DCFFE0706078FFF7D8FF92
:102910006070A078FFF7D4FFA07070BD042800405D
:102920003FFFFF0070B506460C4600250F480068C3
:102930000F4900EA0105C5F305402070C5F30620E4
:10294000607005F07F00A07005F48000000CE0705E
:102950005EB92078FFF7B4FF20706078FFF7B0FF12
:102960006070A078FFF7ACFFA07070BD0028004039
:102970007F7F7F007CB505460024002000900190F9
:1029800000F0EAF800F0007010B10E2420467CBD83
:102990003D49098888B26946FFF7A8FC04460CB196
:1029A0002046F4E7012D36D1019800F4802000285C
:1029B0002ED035480088000434490860372048602C
:1029C000402088600020C860A8020861084600F026
:1029D00001F93720FEF778F904460CB12046D6E716
:1029E00002202A49086006204860402088600020B4
:1029F000C8604FF480600861084600F0EBF80620DC
:102A0000FEF762F904460CB12046C0E72046BEE757
:102A100025242046BBE7019800F4803078B31A489B
:102A20000088000419490860372048604020886009
:102A30000020C8604FF480600861084600F0CAF8C2
:102A40003720FEF741F904460CB120469FE70020ED
:102A50000E49086006204860402088600020C86059
:102A60004FF480600861084600F0B4F80620FEF7D5
:102A70002BF904460CB1204689E7204687E7FFE79B
:102A80002524204683E700004401002038AB0120C4
:102A90000149086070470000382C01400149086076
:102AA00070470000382C0140014908607047000061
:102AB000A080254201490860704700008C852542AE
:102AC00000210B4B02681A601B1D42681A601A1D18
:102AD000116821F0F701D0E902231A4303691A4370
:102AE00043691A431143024A0832116070470000DB
:102AF000242C014010B50121C802FFF74FFE002130
:102B00004FF40060FFF74AFE10BD00000148006866
:102B1000C0B27047102C014001460020034A1268E1
:102B20000A400AB1012000E000207047342C014027
:102B300001460020034A12680A400AB1012000E061
:102B400000207047342C01400248006800F0030068
:102B500070470000002C014008B50146002000909D
:102B60000248084400900098006808BD142C0140F9
:102B700010B500F0F9FC10BD29B1064A12680243F5
:102B8000044B1A6004E0034A12688243014B1A6046
:102B9000704700003C2C014000210A4A116847F6AA
:102BA000FF629143027D83681A4343681A43C368F6
:102BB0001A4303681A4303691A431143014A116017
:102BC00070470000042C0140014800687047000075
:102BD000802C01400021094B02681A601A1D1168FF
:102BE0006FF30A01D0E901231A43C3681A4303694A
:102BF0001A431143014A121D11607047082C01400D
:102C00000149086070470000002C014008B5012010
:102C1000009080210448FFF79EFC08B1002000903E
:102C20009DF8000008BD0000000C024070B504468D
:102C3000002520480068032802D12725284670BDBA
:102C40001C48006838B11B480068012803D01948A7
:102C5000006802282CD1B4F5805F02D127252846D0
:102C6000EDE7B4F5006F13D10120FFF783FE0546B1
:102C7000F5B90020104908750860486088604FF475
:102C80000060C860002008610846FFF785FF0FE07C
:102C90000020FFF76FFE054655B90020064908756C
:102CA000086048608860C86008610846FFF774FFE4
:102CB0002846C4E74001002020AB0120F0B50146C2
:102CC00000200022B74B1B7881F85630B64B1B888A
:102CD000A1F85430B54B1B681A0E93090B70C2F360
:102CE00083034B7002F003038B70B04B1B68C3F37C
:102CF0000742CA70AD4B1B88C3F307220A71AB4B66
:102D00001A784A715B681A0E1301CB80A74B5B6877
:102D1000C3F30742CB8843EA1213CB8002F00F03C0
:102D20000B72A24B9B88C3F30722D3094B72C2F3E9
:102D300080138B72C2F34013CB72C2F300130B7378
:102D400000234B73974B1B681BB1964B1B68012BE1
:102D50004FD193071B0D0B61944B1A790B6943EA12
:102D600082030B61914B9B681A0E0B6943EA921325
:102D70000B61C2F3C2030B7502F007034B758B4B5B
:102D80009B68C3F3074253098B75C2F38203CB756B
:102D900093075B0F0B76854B1B89C3F307220B7ED2
:102DA00043EAD2130B760B695B1C0024C1E9123491
:102DB0000B7ED1E912659B1C012404FA03F3DC1796
:102DC000A6FB037C05FB03C306FB0433C1E91273B6
:102DD0000C7A0123A3400B650027D1E912560B6D35
:102DE000A5FB034C06FB03C305FB0733C1E91243F4
:102DF00023E06C4B1B68022B1FD16C4B1A79930696
:102E00009B0A0B61694B9B681A0E0B6943EA02230C
:102E10000B61664B9B68C3F307420B6913430B615D
:102E2000624B1B89C3F307220B695B1CDB04002484
:102E3000C1E912344FF400730B65C2F3801301F83B
:102E4000193F93065B0E4B70584B1A7A4B7843EA46
:102E5000D2134B7002F07F038B70544BDB681A0E59
:102E6000D309CB70C2F341130B71C2F382034B71D0
:102E700093071B0F8B714D4BDB68C3F307428B79B4
:102E800043EA92138B71C2F34013CB7100230B7290
:102E900002F001034B72454B9B89C3F30722D30910
:102EA0008B72C2F38013CB72C2F340130B73C2F365
:102EB00000134B73C2F381038B7302F00303CB73D4
:102EC0003A4B1A7B53080B7401234B74384B1B6825
:102ED0001A0ECA741939364B1B68C3F30742140221
:102EE000CC85334B1B88C3F30722CB8D1343CB8593
:102EF0002F4B1A7814060C635B681A0E0B6B43EAAF
:102F000002440C632A4B5B68C3F307420B6B43EA32
:102F100002240C63264B9B88C3F307220B6B1343DD
:102F20000B63234B1A7934235A54214B9B681A0E96
:102F300035235A541E4B9B68C3F3074214068C6317
:102F40001B4B1B89C3F307228B6B43EA02448C6340
:102F5000174B1A7A8B6B43EA02248C63144BDB68A1
:102F60001A0E8B6B13438B63114BDB68C3F3074261
:102F70003C235B5C43EA12143C235C5413071C0D96
:102F8000CC870B4B9B89C3F30722CB8F1343CB8793
:102F9000074B1A7B540840235C54012441235C54A2
:102FA000F0BD0000400100204401002098AA01204B
:102FB000A8AA012008B500200090FFF727FE0128ED
:102FC00009D1684600F0BCFB08B1FF2008BD00989D
:102FD000C0F34320FAE7FF20F8E710B50424FFF719
:102FE000E9FF0446042C01D1002010BDFF2C01D1C3
:102FF0000220FAE70120F8E708B500200090FFF76B
:103000006FFB00F069F9FFF775FD00F0C5F900905E
:103010009DF8000010B19DF8000008BD00F030F8E8
:1030200000909DF8000010B19DF80000F5E7002029
:1030300011490875086048608860C86008610846E2
:10304000FFF7AAFD0D48FFF739FE00909DF800003C
:1030500030B90A49B1F85410080400F057FB009049
:103060009DF8000020B94FF40060FFF7DFFD0090ED
:103070009DF80000D1E7000020AB0120C8AA012084
:1030800038B5002401200090FFF75EFD10B925241B
:10309000204638BD44480068042828D00020434911
:1030A000086002204860C02088600020C8604FF49B
:1030B000806008610846FFF78DFDFDF79FFE04461E
:1030C0000CB12046E5E70020FFF746FD38490860CF
:1030D0000420FFF741FD364948600820FFF73CFD1A
:1030E000334988600C20FFF737FD3149C8602E480E
:1030F000006858B12C480068012807D02A480068A9
:10310000062803D028480068022816D10020274945
:10311000086003204860402088600020C8604FF4A9
:10312000806008610846FFF755FD69460320FDF7FA
:10313000A7FE04460CB12046ABE71B4800680428F4
:103140002ED0BDF800001B490860BDF80000000447
:103150001649086009204860C02088600020C860C7
:103160004FF4806008610846FFF734FDFDF746FE26
:1031700004460CB120468CE70020FFF7EDFC0E4919
:1031800008600420FFF7E8FC0B4948600820FFF7BF
:10319000E3FC094988600C20FFF7DEFC0649C860A3
:1031A0000024204675E700004001002038AB0120D4
:1031B000A8AA01204401002098AA012030B58FB0B0
:1031C00004460D464FF074611D48FDF7D1FE002105
:1031D0001B48FDF7E7FE1A48FDF7F0FE4FF00060D0
:1031E00000901848019002940020039004900590EC
:1031F0004FF48060069080000790800008900020C7
:1032000009904FF440300A9004200B9003200C905A
:103210004FF400000D9080100E9069460848FDF7AD
:10322000A1FF012210210648FDF77FFF202104485D
:10323000FDF770FF01210248FDF7B4FE0FB030BD6D
:1032400058640240802C014030B58FB004460D46D2
:103250004FF074611E48FDF78BFE00211C48FDF7FE
:10326000A1FE1B48FDF7AAFE4FF000600090194830
:1032700001900294402003900020049005904FF4A8
:1032800080600690800007908000089000200990E0
:103290004FF400300A9004200B9003200C904FF460
:1032A00000000D9080100E9069460948FDF75AFF06
:1032B000012210210648FDF738FF20210448FDF7C0
:1032C00029FF01210248FDF76DFE0FB030BD00005F
:1032D00058640240802C01401CB501210C20FFF7EE
:1032E0001DFA0C2208212A48FFF712F90C220921A5
:1032F0002748FFF70DF90C220A212548FFF708F9A6
:103300000C220B212248FFF703F90C22114620481A
:10331000FFF7FEF80C2202211E48FFF7F9F84FF4E0
:103320007060009001208DF8050002208DF80400E7
:1033300000208DF8060001208DF80700694614482A
:10334000FFF79EF80420009069461248FFF798F8AE
:103350004FF48050009000208DF8070069460C481B
:10336000FFF78EF88020009000208DF804000120E7
:103370008DF8070069460748FFF782F80121C80267
:10338000FFF7FCF901218805FFF7C8F91CBD000013
:1033900000080240000C0240F8B500200090002513
:1033A0000024002600277620614908750020086067
:1033B000486088604FF40060C860002008610846DB
:1033C000FFF7EAFB0320FFF71BFC0120FFF76CFB74
:1033D00000205849086048608860C8604FF48060E9
:1033E00008610846FFF7F6FBFDF758FC00909DF8D2
:1033F000000010B19DF80000F8BD4FF4D5704D49A4
:10340000086008204860402088600020C8604FF4B1
:10341000806008610846FFF7DDFBFDF77FFD009047
:103420009DF8000020B9012043490860870712E099
:103430000020404908603720486040208860002014
:10344000C8604FF4806008610846FFF7C3FB37206F
:10345000FDF73AFC009000203649086037204860AC
:10346000402088600020C8604FF4806008610846F2
:10347000FFF7B0FB3720FDF727FC00909DF8000018
:10348000002851D13BE000202A49086037204860DD
:10349000402088600020C8604FF4806008610846C2
:1034A000FFF798FB3720FDF70FFC00909DF8000018
:1034B00010B19DF800009FE7204838431D4908607F
:1034C00029204860402088600020C8604FF4806058
:1034D00008610846FFF77EFBFDF7B6FC00909DF8FB
:1034E000000010B19DF8000086E70020FFF734FBD4
:1034F0000546012080EAD57080F00106641C1EB9E3
:103500004FF6FF708442BED34FF6FF70844204D35F
:103510001B2000909DF800006EE705F0804005003C
:1035200002D00220044908609DF8000064E7000012
:1035300020AB012038AB01204001002000001080AA
:1035400010B50748006800F0006040B1012005494F
:1035500008604FF0046102485830FDF709FD10BDC6
:10356000006402405401002010B54FF48070FFF752
:10357000DFFA50B10020254908704FF48070FFF742
:103580008DFA01202249086037E00220FFF7D0FAC7
:1035900030B10220FFF782FA02201C4908702CE0AB
:1035A0000820FFF7C5FA30B10820FFF777FA0420AA
:1035B0001649087021E02020FFF7BAFA30B1202028
:1035C000FFF76CFA06201149087016E01020FFF78B
:1035D000AFFA30B11020FFF761FA05200B490870EF
:1035E0000BE04FF40070FFF7A3FA30B14FF4007016
:1035F000FFF754FA07200549087000214CF23A30D1
:10360000FFF7BAFA0148007810BD00004C01002015
:10361000500100202DE9F04180460D4614461E461B
:1036200000270020324908703249086001203249E1
:10363000086000203149086031480068022801D143
:10364000040200E06543012140F22A30FFF794FABA
:103650000120FFF72FFA06FB04F14046FFF7AEFD0D
:1036600028480460102027494860402088600020D6
:10367000C8604FF4806008610846FFF7ABFA10207D
:10368000FDF722FB07462FB10020FFF713FA38465B
:10369000BDE8F0814FF0FF301B49086006FB04F0E5
:1036A0004860902088600220C860002008610120E6
:1036B00048610846FFF704FA1248056012201149D4
:1036C0004860402088600020C8604FF48060086136
:1036D0000846FFF77FFA1220FDF7F6FA074627B1F2
:1036E0000020FFF7E7F93846D2E73846D0E7000078
:1036F0004C01002050010020480100202C2C0140EA
:103700004001002038AB01204CAB012070B50446CD
:1037100000250A4804600720084948604020886066
:103720000020C8604FF4806008610846FFF752FA35
:103730000720FDF7C9FA0546284670BD38AB0120C1
:1037400070B50446002514B92625284670BD0F48DB
:10375000008800040E4908600D2048604020886001
:103760000020C8604FF4806008610846FFF732FA15
:103770000D20FDF7A9FA05460DB12846E6E7002021
:10378000FFF7EAF920602846E0E700004401002046
:1037900038AB012010B5002400200A4908600C2035
:1037A0004860402088600020C8604FF48060086155
:1037B0000846FFF70FFA0C20FDF786FA044620466C
:1037C00010BD000038AB012070B500256C1E00E074
:1037D000641E1848006838B91748006820B91748AF
:1037E000007808B9002CF3D1002012490860441E6B
:1037F00000E0641E1248006800F4005008B1002C7C
:10380000F7D110480068012805D1FFF7C3FF05462E
:1038100000200C4908600CB905B9042540F2FF509E
:10382000FFF736F90548007810B10448007870BDFC
:103830002846FCE754010020500100204C010020E4
:10384000342C01404801002070B500256C1E00E0BA
:10385000641E1848006838B91748006820B917482E
:10386000007808B9002CF3D1002012490860441EEA
:1038700000E0641E1248006800F4805008B1002C7B
:10388000F7D110480068012805D1FFF783FF0546EE
:1038900000200C4908600CB905B9042540F2FF501E
:1038A000FFF7F6F80548007810B10448007870BDBD
:1038B0002846FCE754010020500100204C01002064
:1038C000342C0140480100202DE9F04180460F468C
:1038D00014461E46002500204B4908704B490860DD
:1038E00001204B49086000204A4908604A480068A6
:1038F000022801D1040200E06743012140F22A308E
:10390000FFF73AF90120FFF7D5F806FB04F140462E
:10391000FFF79AFC4148046010204049486040206D
:1039200088600020C8604FF4806008610846FFF797
:1039300051F91020FDF7C8F905462DB10020FFF719
:10394000B9F82846BDE8F0813548008800043349BD
:10395000086037204860402088600020C8604FF42D
:10396000806008610846FFF735F93720FDF7ACF9AC
:10397000054625B10020FFF79DF82846E2E72748D5
:103980000660172025494860402088600020C860F4
:103990004FF4806008610846FFF71CF91720FDF717
:1039A00093F9054625B10020FFF784F82846C9E7BA
:1039B0001A48076019201949486040208860002093
:1039C000C8604FF4806008610846FFF703F91920CA
:1039D000FDF77AF9054625B10020FFF76BF8284678
:1039E000B0E74FF0FF300F49086006FB04F0486075
:1039F000902088600020C860086101204861084666
:103A0000FFF75EF828469DE74C010020500100209A
:103A1000480100202C2C01404001002038AB01203F
:103A2000440100204CAB01200149086070470000B0
:103A3000DC00274230B500228B071C0F0F2303FA4E
:103A400004F20B4B8C1053F824309343084C8D1028
:103A500044F8253023468C1053F824308C07240F6B
:103A600000FA04F42343024C8D1044F8253030BD95
:103A7000083801400CB50020019000903A480068D9
:103A800040F480303849086000BF3748006800F4CF
:103A9000003000900198401C0190009818B90198DE
:103AA000B0F5A04FF1D13048006800F4003010B1FB
:103AB0000120009001E0002000900098012852D1E0
:103AC00029484030006840F0805027494031086064
:103AD0002648006840F440402449086022480830E5
:103AE00000682149083108600846006840F4004039
:103AF00008600846006840F4A05008601C48091F90
:103B00000860081F006840F08070091F086000BF4F
:103B10001548006800F000700028F9D015480068CA
:103B200041F20101B1EB104F04D140F2057012498E
:103B3000086003E040F205600F4908600A48083059
:103B4000006820F003000849083108600846006852
:103B500040F00200086000BF03480830006800F031
:103B60000C000828F8D10CBD00380240007000405D
:103B700019544007002004E0003C024010B509F051
:103B800021F910BD10B51648006840F470001449C2
:103B900008601448006840F00100124908600020E5
:103BA0001049083108600F4800680F4908400D4966
:103BB00008600E48091D0860081F006820F4802076
:103BC000091F0860002007490C31086000F010F858
:103BD000FFF750FF4FF0006001498039086010BDC9
:103BE00088ED00E000380240FFFFF6FE10300024B0
:103BF00010B598B04FF6FF7401210420FEF78EFD3A
:103C000001210820FEF78AFD01211020FEF786FD24
:103C100001212020FEF782FD01214020FEF77EFDDC
:103C200002208DF85C008DF85D0000208DF85E00AC
:103C30008DF85F000C220021C348FEF769FC0C22BE
:103C40000221C148FEF764FC0C220321BE48FEF7A6
:103C50005FFC0D20169016A9BB48FEF711FC0C2244
:103C60000021BA48FEF754FC0C220121B748FEF7A8
:103C70004FFC0C220821B548FEF74AFC0C22092112
:103C8000B248FEF745FC0C220A21B048FEF740FC82
:103C90000C220E21AD48FEF73BFC0C220F21AB4855
:103CA000FEF736FC4CF20370169016A9A748FEF7F3
:103CB000E7FB0C220021A648FEF72AFC0C2201217A
:103CC000A348FEF725FC0C220721A148FEF720FCA3
:103CD0000C2208219E48FEF71BFC0C2209219C485F
:103CE000FEF716FC0C220A219948FEF711FC0C2263
:103CF0000B219748FEF70CFC0C2211469448FEF766
:103D000007FC0C220D219248FEF702FC0C220E212A
:103D10008F48FEF7FDFB0C220F218D48FEF7F8FBC4
:103D20004FF68370169016A98948FEF7A9FB0C225E
:103D300000218848FEF7ECFB0C2201218548FEF7A4
:103D4000E7FB0C2202218348FEF7E2FB0C22032151
:103D50008048FEF7DDFB0C2204217E48FEF7D8FBED
:103D60000C2205217B48FEF7D3FB0C220B2179485E
:103D7000FEF7CEFB0C2211467648FEF7C9FB0C225B
:103D80000D217448FEF7C4FB0C220E217148FEF78A
:103D9000BFFB0C220F216F48FEF7BAFB4FF63F0026
:103DA000169016A96B48FEF76BFB0C2200216A489F
:103DB000FEF7AEFB0C2201216748FEF7A9FB0C229F
:103DC00004216548FEF7A4FB0C2205216248FEF79A
:103DD0009FFB0C2208216048FEF79AFB0C220F2162
:103DE0005D48FEF795FB48F23310169016A95A4825
:103DF000FEF746FB01210846FEF7B0FC02200490C6
:103E000007200590042006900720079002200890C4
:103E100009900A9000200B9001200C9008200D9032
:103E200010200E9040200F904FF4C0701090002092
:103E300011904FF4006012904000139040001490D5
:103E400004A815900BA8FEF7C9F9012000901020D6
:103E50000190012002900020039006E0002400E081
:103E6000641C4FF6FF708442FAD320210020FEF735
:103E700081F90028F2D16846FEF7A0F9002400E09D
:103E8000641C36488442FBD302200090102001902D
:103E9000012002900020039000BF20210020FEF7A7
:103EA00069F90028F9D1002400E0641C4FF6FF7086
:103EB0008442FAD36846FEF781F90320009010206F
:103EC0000190082002900020039000BF20210020D4
:103ED000FEF750F90028F9D1002400E0641C4FF6E9
:103EE000FF708442FAD36846FEF768F90420009018
:103EF00010200190012002904FF40C70039000BF3D
:103F000020210020FEF736F90028F9D1002400E036
:103F1000641C4FF6FF708442FAD36846FEF74EF9F0
:103F200040F27E20FEF7D6F900BF20210020FEF7E8
:103F300021F90028F9D1002400E0641C4FF6FF703D
:103F40008442FAD318B010BD00080240000C0240B1
:103F5000001002400014024000180240FFFF3F0022
:103F6000704700BFFEE70000004870476001002076
:103F700030B583B09FED0A0B04468DED000B00F0C9
:103F800013F80546002221466846FCF7ACFA28469D
:103F900000F020F89DED000B03B030BD00000000E4
:103FA00000000000000000000148006870470000A9
:103FB0006001002002E008C8121F08C1002AFAD1DF
:103FC00070477047002001E001C1121F002AFBD199
:103FD0007047000001490860704700006001002040
:103FE00030380A2801D201207047002070470000B5
:103FF00010B5044600BF00BF01F002FF00220349D4
:1040000041F2883005F0F0FB10BD0000F13F0008E0
:1040100010B5044601F0F4FE0022034941F2883055
:1040200005F0E2FB10BD00001140000870B5044629
:104030000D46607801232A4604F1340101F016FA96
:1040400008B1032070BD94F8321294F8330241EAAB
:1040500000204AF65521884201D00220F2E794F868
:104060006D00010694F86C0041EA004194F86B0081
:1040700041EA002094F86A10084320F07F400E497E
:10408000884201D10020DDE794F88900010694F808
:10409000880041EA004194F8870041EA002094F842
:1040A0008610084320F07F400349884201D1002058
:1040B000C8E70120C6E7000046415400024600E080
:1040C000521C107810B110788842F9D110787047DE
:1040D0002DE9F74F88B008980068019001980078A2
:1040E00030380790079809280AD8019840783A286C
:1040F00006D10198801C019008990198086001E0A0
:1041000000200790002109980160079818B10B2042
:104110000BB0BDE8F08FD149079851F820400CB999
:104120000C20F5E709980460207878B1607801F0F8
:10413000EAF9804608F0010040B90A9820B108F079
:10414000040008B10A20E3E70020E1E70020207026
:1041500007986070607801F079F9804608F00100F6
:1041600008B10320D4E70A9820B108F0040008B190
:104170000A20CDE74FF0000949462046FFF756FFD9
:10418000054600BF012D21D14FF0000BBBF1000F00
:1041900003D0ABF1010000F0FF0B4FF4DF7000EB38
:1041A0000B1104F134000F18387978B1F87A010650
:1041B000B87A41EA0041787A41EA0020397A40EA47
:1041C000010949462046FFF731FF0546032D01D17D
:1041D00001209DE70DB10D209AE73F20015D94F885
:1041E000400041EA0020B0F5007F01D00D208FE7AC
:1041F0004A20015D94F84B0041EA002ABAF1000F11
:104200000ED194F85B00010694F85A0041EA00418F
:1042100094F8590041EA002094F8581040EA010A45
:10422000C4F81CA04420065DE670012E03D0022EC7
:1042300001D00D206CE70AFB06FA4120005D06461E
:10424000A07016B1701E304008B10D2060E7452007
:10425000015D94F8460041EA00202081207A00F0B8
:104260000F0008B10D2053E74720015D94F8480086
:1042700041EA00200690069870B994F857000106AC
:1042800094F8560041EA004194F8550041EA0020B4
:1042900094F85410084306904220015D94F84300BE
:1042A00041EA00200290029808B90D2030E70298F8
:1042B0005044218900EB11100590DDE90501814290
:1042C00001D20D2024E7DDE90510401AA178B0FBEA
:1042D000F1F00490049808B90D2019E7012540F683
:1042E000F6710498884200D302254FF6F6710498BF
:1042F000884200D303250498801CA061C4F8209054
:1043000002984844606205984844E062032D16D143
:10431000208908B10D20FBE694F86300010694F8AB
:10432000620041EA004194F8610041EA002094F8FB
:1043300060100843A062A0698000039014E0208907
:1043400008B90D20E4E6606A5044A062022D02D153
:10435000A069400007E0207E00F00100A16901EBA8
:10436000410100EB51000390E169039800F2FF1056
:10437000B1EB502F01D20D20CAE64FF0FF30206183
:104380000020E060032D5CD1607194F8641094F813
:10439000650041EA0020484460616078012304F12F
:1043A0003401626901F062F8F0BB94F8321294F8BB
:1043B000330241EA00204AF65521884241D1372094
:1043C000005D01063620005D41EA00413520005DB8
:1043D00041EA002094F8341008432149884230D142
:1043E00094F81B02010694F81A0241EA004194F87D
:1043F000190241EA002094F818120843194988422A
:104400001FD194F82302010694F8220241EA0041E8
:1044100094F8210241EA002094F820120843E06059
:1044200094F81F02010600E00BE094F81E0241EA36
:10443000004194F81D0241EA002094F81C12084340
:104440002061257008480088401C80B20649088019
:10445000E08000202063207100BF59E65801002051
:1044600052526141727241615C0100200246891E14
:104470009069801E884201D8002070479378D06AE6
:1044800001FB0300F9E72DE9F04704468946B9F13D
:10449000000F06D1E76817B1A069B84211D801270B
:1044A0000FE04946204602F08EF80646022E02D260
:1044B0000120BDE8F087A069B04201D93046F8E795
:1044C0004F463D4600BF6D1CA069A84204D8022596
:1044D000BD4201D90020ECE72946204602F073F8DE
:1044E000064606B909E0701C08B1012E01D130461C
:1044F000DFE7BD42E7D10020DBE700BF6FF070428D
:104500002946204603F0A5FF8046B8F1000F08D1E8
:10451000B9F1000F05D02A464946204603F099FF1D
:104520008046B8F1000F09D1E5602069401C68B1F0
:104530002069401E20610120607107E0B8F1010F81
:1045400002D14FF0FF3000E0012005462846B0E7D9
:104550002DE9F35F8A46DAF8007000E07F1C3878B6
:104560002F28FBD038785C28F8D0009886690B2279
:104570002021304602F0F4FF0025A946AB464FF05B
:10458000080800BF58460BF1010B3C5C202C03DDF2
:104590002F2C01D05C2C00D136E02E2C01D0C1454F
:1045A0000ED3B8F1080F01D12E2C02D00620BDE8A1
:1045B000FC9F4FF008094FF00B08A806050EE1E735
:1045C000802C05DB45F00305A4F1800023490C5C39
:1045D000214623A0FFF772FD08B10620E7E7412C32
:1045E00004DB5A2C02DC45F0020508E0612C06DBF6
:1045F0007A2C04DC45F00105A4F12000C4B2484641
:1046000009F101093454BDE700BF07EB0B00CAF8FC
:104610000000202C01DC042000E000200446B9F159
:10462000000F01D10620C2E73078E52801D105202E
:104630003070B8F1080F01D1A806050E05F003008F
:10464000012801D144F0100405F00C00042801D128
:1046500044F00804F4720020A9E7000084D50008A3
:10466000222A2B2C3A3B3C3D3E3F5B5D7C7F000089
:1046700070B504460D4600BF04B970BD00BF00BF51
:1046800000BF606A78B1606A007B08280BD100BF68
:1046900000BF2868616A496A884204D100BF00BF30
:1046A000204600F077F900BFE7E77CB5064600BF7B
:1046B00006B97CBD00BF746A00BF04B9F9E700BF4A
:1046C00000BF00BF606B401C90B100BF00BF606BBB
:1046D0001E303C21B0FBF1F5B5F5803F01D34FF61C
:1046E000FF75A583A08B08B90120A08300BF00BF80
:1046F000A06B401C90B100BF00BFA06B1E303C21DE
:10470000B0FBF1F5B5F5803F01D34FF6FF75E583BA
:10471000E08B08B90120E08300BF00BFA08BE18BD4
:10472000884204DBE08B002801DD0020A083A07B11
:1047300010B1A06A019010E094F824007F2802DCF8
:10474000FF21019108E0C02803DB6FF07F41019158
:1047500002E04FF6FF71019100BFE06A00906846E9
:1047600008B1009838B9606A019908400090009833
:1047700040F08070009000BF00BF04F1240130467B
:1047800003F002F900BF00BF01A9304603F07EF933
:1047900000BF00BF6946304603F0EDF8304603F035
:1047A0007DF90A21204600F051FC00BF81E72DE988
:1047B000F0410646746A00BF00BF0821204600F0A1
:1047C00045FC002204F12401304601F0B1F9054610
:1047D0000DB100BF00BF607B401C60734FF4FA77DF
:1047E00007F2F310394690FBF1F0608300BF00BF81
:1047F000BDE8F08110B51248046800BF00BF1BE09F
:10480000606AC0B1606AC18B481E626AD0830129A8
:1048100005D100BF00BF204600F034FC0BE0606A09
:10482000818B481E626A9083012904D100BF00BFBA
:10483000204600F013FC2468002CE1D110BD0000DC
:10484000340000202DE9F04106460C46174600BF13
:104850001EB96FF00D00BDE8F08100BF00BF14B9B4
:104860006FF00500F7E700BF00BF00BF00BF00BF4B
:1048700000224FF49A71104603F02BF92061206951
:1048800020B900BF00BF4FF0FF30E4E700BF00BF1A
:10489000607B20B93D480068401C3C4908603B48AB
:1048A0000068206000BF00BF20694068606101208F
:1048B000616908706169487096F82A0061698870BA
:1048C00000206169C870206802F05CFC6169486082
:1048D000002061690881616948816169C860082FA9
:1048E00009D0042F07D0032F08D1207B052802D040
:1048F000207B042802D170686169C860002061696A
:104900000861616948616169886100250DE096F878
:104910002A00A84203DD06F12B00405D00E00020E4
:1049200061691C314855681C85B2102DEFD30025F4
:1049300005E0002160692C304155681C85B2402D8E
:10494000F7D3002505E0002160696C304155681CF3
:1049500085B2802DF7D30E486169C1F8EC000020C4
:104960002083002504E06069F0304555681C85B25D
:10497000442DF8D301223521204600F027F939468D
:10498000204600F033F9002065E7000020000020F9
:10499000638253632DE9F84305466C6A002600BF25
:1049A00000BF0C21204600F051FB0422214628467E
:1049B000FFF748FF06460EBB04223221204600F0D6
:1049C00005F9606A02F003FC80464146204600F08B
:1049D00016F9204600F045F9228BF03291B2206999
:1049E00003F0AFFA009543230E4A2169606807F08F
:1049F0005BFE204600F018F800BF01E000BF00BFDA
:104A0000607B401C607342F2107707F2F3104FF4A2
:104A1000FA7190FBF1F0608300BF00BF3046BDE843
:104A2000F883000060D5000810B5044600BF04B943
:104A300010BD00BF00BF00BF00BF00BF206910B1A4
:104A4000206903F0F6F900202061606100BFEFE704
:104A5000F8B505466C6A002600BF00BF0020606202
:104A60000621204600F0F2FA012221462846FFF7EF
:104A7000E9FE0646002E3AD100BF00BF02223921CE
:104A8000204600F0A3F8298D204600F0D9F8042232
:104A90003721204600F09AF80121204600F0A6F8C0
:104AA0000321204600F0A2F81C21204600F09EF8C9
:104AB0000621204600F09AF8204600F0D2F800BF08
:104AC00000BF228BF03291B2206903F03AFA00BFA6
:104AD00000BF00954323164A2169606807F0E4FD92
:104AE00000BF00BF2046FFF79FFF00BF01E000BFEF
:104AF00000BF607B401C6073607B062803DA617B2B
:104B00000120884000E03C2000EB4001C1EBC010D8
:104B10004FF6FF7101EAC00707F2F3104FF4FA7184
:104B200090FBF1F0608300BF00BF3046F8BD00008D
:104B300060D5000810B5104804681AE0606AB8B182
:104B4000606A408B012805DD606A408B401E616A07
:104B500048830DE0606A408B012809D1606A408B70
:104B6000401E616A488300BF00BF204600F09EFAE5
:104B70002468002CE2D110BD3400002070B5054639
:104B80006C6A04B970BD207B042809D003DC98B19D
:104B9000032812D107E0052803D00A280DD101E02F
:104BA00000BF00BF00BF284602F0D0FE00206073A7
:104BB000284600F0C5F806E005E0002060732846AE
:104BC000FFF746FF00BF00BF00BFDBE710B500BF27
:104BD00000BF048B631C03834369F0331955048BB6
:104BE000631C03834369F0331A5510BD00BF00BF37
:104BF000038B5A1C02834269F032D154704710B5BE
:104C000000BF00BF0B0E048B621C02834269F032AE
:104C10001355C1F30743048B621C02834269F032CF
:104C20001355C1F30723048B621C02834269F032DF
:104C30001355048B621C02834269F032115510BD7A
:104C400010B500BF00BF0B0A048B621C02834269CF
:104C5000F0321355048B621C02834269F032115505
:104C600010BD00BF00B9704700BF00BF00BF00BF4C
:104C700000BFFF22038B591C01834169F031CA54E4
:104C800006E00022038B591C01834169F031CA54AC
:104C9000018B442903D3017E01F0030111B1018B83
:104CA0004429EED300BFDEE7F8B505466C6A00BFC5
:104CB00000BF0421204600F0C9F9032221462846FE
:104CC000FFF7C0FD0646EEB9022239212046FFF764
:104CD0007DFF298D2046FFF7B3FF2046FFF7C1FF78
:104CE000228BF03291B2206903F02BF90095432317
:104CF000124A2169606807F0D7FC2046FFF794FE4E
:104D000000BF01E000BF00BF607B401C6073607BA0
:104D10000A2805DA607B4FF47A7110FB01F001E09C
:104D200042F2107087B207F2F3104FF4FA7190FB61
:104D3000F1F0608300BF00BF3046F8BD60D50008C9
:104D40002DE9F84305466C6A00BF00BF03212046E9
:104D500000F07CF9032221462846FFF773FD064642
:104D60005EBB022239212046FFF730FF4FF410715D
:104D70002046FFF765FF042232212046FFF726FF79
:104D8000606A02F024FA804641462046FFF737FF6A
:104D90002046FFF766FF228BF03291B2206903F0C4
:104DA000D0F800954323134A2169606807F07CFC22
:104DB0002046FFF739FE00BF01E000BF00BF607B67
:104DC000401C6073607B0A2805DA607B4FF47A71BF
:104DD00010FB01F001E042F2107087B207F2F3100D
:104DE0004FF4FA7190FBF1F0608300BF00BF3046D2
:104DF000BDE8F88360D50008F8B505466C6A00BFC9
:104E000000BF0021204600F021F9002020626062EE
:104E1000A062E062A0636063206307222146284607
:104E2000FFF710FD0646AEB92046FFF71AFF228BAA
:104E3000F03291B2206903F084F80095432304F125
:104E400020022169606807F02FFC2046FFF7ECFD87
:104E500000BF01E000BF00BF607B401C6073607B4F
:104E60000A2805DA607B4FF47A7110FB01F001E04B
:104E700042F2107087B207F2F3104FF4FA7190FB10
:104E8000F1F0608300BF00BF284602F05FFD0749D4
:104E9000284602F079FD0549284602F06CFD0349D9
:104EA000284602F0F3FD3046F8BD00005CD500084E
:104EB000F8B505466C6A00BF00BF0521204600F02A
:104EC000C5F8032221462846FFF7BCFC0646F6B982
:104ED000022239212046FFF779FE298D2046FFF76F
:104EE000AFFE2046FFF7BDFE228BF03291B2206963
:104EF00003F027F80095432304F12002216960683C
:104F000007F0D2FB2046FFF78FFD00BF01E000BF96
:104F100000BF607B401C6073607B0A2805DA607B01
:104F20004FF4FA6110FB01F001E044F6206087B213
:104F300007F2F3104FF4FA7190FBF1F0608300BFB9
:104F400000BF3046F8BD00002DE9F84305466C6A05
:104F500000BF00BF0121204600F078F8032221465F
:104F60002846FFF76FFC0646002E4CD1022239215D
:104F70002046FFF72BFE298D2046FFF761FE042215
:104F800032212046FFF722FE606A02F020F98046B7
:104F900041462046FFF733FE042236212046FFF724
:104FA00015FE206A02F013F9804641462046FFF7BD
:104FB00026FE042237212046FFF708FE0121204665
:104FC000FFF714FE03212046FFF710FE1C212046A8
:104FD000FFF70CFE06212046FFF708FE2046FFF7EC
:104FE00040FE228BF03291B2206902F0AAFF0095B8
:104FF0004323154A2169606807F056FB2046FFF7F6
:1050000013FD00BF01E000BF00BF607B401C607368
:10501000607B062803DA617B0120884000E03C20A9
:1050200000EB4001C1EBC0104FF6FF7101EAC00771
:1050300007F2F3104FF4FA7190FBF1F0608300BFB8
:1050400000BF3046BDE8F88360D50008027B8A4285
:1050500003D00173002242734283704770B5054646
:105060006C6A00BF00BF207B012805D0207B0A2886
:1050700002D0207B052804D100BF00BF2846FFF7DF
:1050800017FF70BD70B505466C6A00BF00BF207B7E
:10509000012805D0207B0A2802D0207B052804D1D6
:1050A00000BF00BF2846FFF7FFFD70BD70B5054685
:1050B0006C6A00BF00BF207B0C2802D0207B062832
:1050C00005D100BF00BF2846FFF7C2FC4FE0207BA0
:1050D000012811D100BF00BF607B052803DC2846F2
:1050E000FFF732FF43E000BF00BF2846FFF784FE12
:1050F0002846FFF7ADFC3AE0207B08280CD100BF22
:1051000000BF607B012803DC2846FFF750FB2EE040
:105110002846FFF7CAFA2AE0207B052805D100BF00
:1051200000BF2846FFF7C4FE21E0207B042811D1F0
:1051300000BF00BF607B082803DC2846FFF7B4FDF2
:1051400015E000BF00BF2846FFF756FE2846FFF7D0
:105150007FFC0CE0207B032809D1607B022803DA66
:105160002846FFF7EDFD02E02846FFF771FC70BD11
:1051700010B5044600BF00BFFFF73CFB0022034907
:105180004EF6602004F030FB10BD000071510008A5
:1051900010B5044600BF00BFFFF7CCFC0022034956
:1051A0004FF4FA7004F020FB10BD0000915100088C
:1051B0002DE9F04104460E460021204600F0F8F8A3
:1051C0000546EDB9002700BF2169206802F040FBC9
:1051D000054605B113E060690078E52802D06069F2
:1051E000007820B9781C0746B04201D107E00027BB
:1051F0000121204600F035F80546002DE4D000BF1F
:105200002846BDE8F0812DE9F04104460021204602
:1052100000F0CEF8054615B12846BDE8F08100BF84
:105220002169206802F014FB054605B116E06669A5
:1052300037780FB9042511E0F07A00F0080030B992
:105240000B223046A16902F015F800B906E00021F2
:10525000204600F006F80546002DE1D000BF2846A4
:10526000DBE72DE9F0410446884600BFE088401C9A
:1052700086B20EB1206910B90420BDE8F08106F0B5
:105280000F0000286DD12069401C2061E06828B91A
:1052900020680089B04264DC0420EEE72068807852
:1052A000401E00EA161000285BD1E168206801F07A
:1052B0008AF90546012D01D80220DEE7681C08B9ED
:1052C0000120DAE720688069A84244D8B8F1000FCD
:1052D00001D10420D1E7E1682068FFF7D4F8054642
:1052E0000DB90720C9E7012D01D10220C5E7681CCF
:1052F00008B90120C1E7206804F02AF908B10120AB
:10530000BBE7216801F134004FF40072002102F084
:1053100027F929462068FFF7A9F8216808630027C4
:105320000FE0012021680871206804F011F908B12C
:105330000120A2E72068006B401C21680863781CEC
:10534000C7B220688078B842EBDC2068006BC01BD5
:105350002168086300BFE56029462068FFF786F8EA
:105360002061E6802068343006F00F0100EB411028
:105370006061002081E770B5044601212046FFF7F7
:1053800017FF054695B92169206802F061FA0546C4
:1053900065B920220021606902F0E2F80B22D4E90D
:1053A000050101F07AFF012021680871284670BDCF
:1053B0002DE9F04104460E46E680A568012D03D094
:1053C00020688069A84202D80220BDE8F0812DB98A
:1053D00020680078032801D12068856A65B9E560F6
:1053E00020680089B04201DC0220EEE72068806A74
:1053F00000EB1610206120E020688078070112E0A1
:105400002946206801F0DFF80546681C08B901202C
:10541000DBE7022D03D320688069A84201D802206F
:10542000D3E7F01B86B2BE42EADAE560294620687F
:10543000FFF71CF800EB161020612068343006F0EE
:105440000F0100EB411060610020BEE770B505461A
:1054500000240DB144F00104FDF7CEFD08B144F085
:105460000104204670BD0346002070472DE9F0433B
:10547000ADF5017D81460C4616469846FDF7C6FB04
:10548000012804D003200DF5017DBDE8F08304F070
:105490000300E8B1002711E03246761C012301A980
:1054A0004846FFF7E3FF074607B10EE04FF40072EE
:1054B00001A92046FAF7E2FE04F500745FEA08004D
:1054C000A8F1010101F0FF08E6D100BF3846DAE794
:1054D00043464FF4007231462046FEF79BF80546DE
:1054E0007DB9FEF771F9054600BFFDF776FD074669
:1054F0000128FAD0022F00D00DB10120C3E700200F
:10550000C1E70120BFE770B505460024FDF77EFB2B
:10551000012801D044F00204204670BD2DE9F0437B
:10552000ADF5017D81460C4616469846FDF76EFBAB
:10553000012804D003200DF5017DBDE8F08304F0BF
:105540000300E8B1002711E04FF40072214601A8E2
:10555000FAF794FE3246761C012301A94846FFF76C
:10556000DDFF074607B108E004F500745FEA0800B4
:10557000A8F1010101F0FF08E6D100BF3846DAE7E3
:1055800043464FF4007231462046FEF79DF905462A
:105590007DB9FEF759F9054600BFFDF71EFD074628
:1055A0000128FAD0022F00D00DB10120C3E700205E
:1055B000C1E70120BFE700002DE9FC47054688460A
:1055C000164600BF0DB9BDE8FC8700BF70892A28C8
:1055D00010DA00BF00BF5648408C401C81B25448CE
:1055E0004184C08B401C81B25148C183304602F0D7
:1055F00020FCE8E7776807F10E042088B0F5807F8B
:1056000008D12079062805D16079042802D1608864
:10561000082810D000BF00BF4548008D401C81B253
:1056200043480185C08B401C81B24148C18330464C
:1056300002F0FFFBC7E73E48408B401C81B23C486C
:105640004183D4F80E000190A0690090281D08B194
:10565000686810B94FF0000907E00098696888424F
:1056600001D1012000E000208146B9F1000F01D0F6
:10567000012000E00220034604F1080201A92846A7
:1056800000F008FCE088B0F5807F03D0B0F5007F23
:105690003ED136E000BF00BFB9F1000F28D000BFF7
:1056A00000BF022001F07BFDE080D4F80E00A06175
:1056B0006868C4F80E0000BF00BFA068C4F81200FC
:1056C000A089E082A0683860A089B880D8F800007E
:1056D000A060B8F80400A081D8F80000C7F8060060
:1056E000B8F80400788131462846AA69904707E057
:1056F000281D08B1686808B900BF01E000BF00BFFD
:105700000FE000BF00BF01A92846FEF7B1FF08E087
:1057100000BF00BF0648808D401C81B204488185CF
:1057200000BF00BF304602F084FB00BF4BE7000023
:105730006054002070B50546002412E004EB84009C
:10574000094901EB8000867C4EB104EB840001EB3B
:1057500080008068A84202D1204600F0C5F8601C95
:10576000C4B20A2CEADB70BDE85500202DE9FC5FCD
:1057700005460F464FF00A08C1460A260024A346F4
:1057800000200190B246009000BF60E004EB84006E
:10579000544A02EB8000817C0A2E04D119B900BF63
:1057A00000BF66B251E000294FD000BF00BF6DB10D
:1057B00004EB84024B4B03EB820228685268904250
:1057C00004D100BF00BF60B2BDE8FC9F012928D111
:1057D00004EB8400434A52F8200088B104EB8400B3
:1057E00002EB8000C27C009882422EDB4FFA84FAE2
:1057F00004EB84003B4A02EB8000C07C009024E074
:1058000004EB8400374A02EB8000C07C58451CDB67
:105810004FFA84F804EB840002EB800090F813B098
:1058200013E0022911DB04EB84002E4A02EB800016
:10583000C27C0198824208DB4FFA84F904EB8400B1
:10584000284A02EB8000C07C0190601CC4B20A2C84
:105850009CDB07F0020020B90A2E07D107F00100F7
:1058600020B900BF00BF4FF0FF30ADE70A2E02DACB
:10587000F4B200BF20E0B9F10A0F05DA09F0FF0425
:1058800000BF00BF00BF12E0B8F10A0F03DA08F052
:10589000FF0400BF0BE0BAF10A0F03DA0AF0FF04BD
:1058A00000BF04E000BF00BF4FF0FF308CE700BF37
:1058B00000BF204600F018F800BF00BF00BF00BFC7
:1058C00035B104EB8401074A02EB81012868486086
:1058D000002004EB8401034A02EB8101C87460B22A
:1058E00072E70000E855002010B5044604EB840080
:1058F000194951F8200070B100BF00BF04EB8401CA
:10590000154A52F8210002F094FA002004EB8401B9
:10591000114A42F82100002004EB84010E4A02EBF8
:105920008101887404EB840102EB8101C87404EBEB
:10593000840102EB8101886004EB840102EB8101A8
:10594000486004EB8400114601EB800003490A68BB
:10595000C2608988018210BDE85500206AD5000820
:105960002DE9FC4704460F461546A94600BF00BF77
:1059700000BF00BF00BF00BF0E21384602F09EFAF4
:1059800050B100BF00BF4B484089401C4949488185
:105990006FF00100BDE8FC872146286801F03BF864
:1059A00010B1DFF814817DE0287800F0F000E028E5
:1059B00015D101208DF8000000208DF801005E2037
:1059C0008DF80200687800F07F008DF80300A87859
:1059D0008DF80400E8788DF80500E84661E0286855
:1059E000A1680840D4E901121140884210D02888EB
:1059F00080B24FF6A96188420AD004F10C0020B1B0
:105A0000E06810B104F10C0902E06FF00300C1E797
:105A10002A48007800EB8000294901EB8000807C57
:105A2000022818DB2549097801EB8101244A02EBA1
:105A30008101D9F80000496888420CD11D48C08D09
:105A4000401C81B21B48C1851C480278394620465B
:105A500000F038F89EE700261BE006EB86001849A8
:105A600001EB8000807C022811DB06EB8601144AE2
:105A700002EB8101D9F800004968884207D10F493B
:105A80000E70F2B23946204600F01CF882E7701C16
:105A900046B20A2EE1DB3A464946204600F048F875
:105AA00078E700BF434604F12B023946204600F058
:105AB00089F96FE76054002064D50008AA0000202F
:105AC000E855002070B505460E46144600BF00BFDD
:105AD00004EB8400154901EB8000807C022817D17B
