:020000040800F2
:10000000C8BC012039070008590201085B02010839
:100010005D0201085F0201086102010800000000A2
:10002000000000000000000000000000B101000816
:100030006302010800000000F501000865020108E4
:100040005307000853070008530700085307000828
:100050005307000853070008530700085307000818
:100060005307000853070008530700085307000808
:10007000F30401085307000853070008530700085A
:100080005307000809040108530700085307000834
:1000900053070008530700085307000853070008D8
:1000A00053070008530700085307000853070008C8
:1000B00053070008530700085307000853070008B8
:1000C00053070008530700085307000853070008A8
:1000D00053070008B303010845040108530700084B
:1000E0006902010853070008530700085307000876
:1000F0005307000853070008530700087703010857
:1001000053070008D30201085307000853070008EB
:10011000530700085307000891050108530700081A
:10012000530700085307000853070008D7020108C7
:10013000530700089B0201085307000853070008F3
:100140005307000853070008530700085307000827
:100150005307000853070008DB0201089F04010849
:100160005307000853070008530700085307000807
:1001700053070008530700085307000853070008F7
:1001800053070008530700083D05010853070008FE
:10019000530700085307000853070008DFF80CD086
:1001A00014F0F4FB004800476B000108C8BC0120B4
:1001B000234B19680868B0E8F04F80F309884FF0C6
:1001C000000080F3118870470000000003480068B9
:1001D000006880F3088862B600DF00BF08ED00E029
:1001E000DFF80C00016841F470010160704700BF46
:1001F00088ED00E0EFF30980114B1A681EF0100F34
:1002000008BF20ED108A20E9F04F106008B54FF0CC
:10021000500080F311880BF031FF4FF0000080F3A5
:100220001188BDE8084019680868B0E8F04F1EF072
:10023000100F08BFB0EC108A80F30988704700BF28
:10024000E8000020EFF311804FF0500181F3118896
:10025000704780F3118870470CB50021FE4801916A
:100260000091026842F4803202604FF4A0430268B9
:1002700002F400320092019A521C0192009A12B9C3
:10028000019A9A42F3D1026892032DD5012100917F
:10029000F14940310A6842F080520A60EF490A6829
:1002A00042F440420A60EC4908310A680A600A6870
:1002B00042F400420A600A6842F4A0520A600B1F2E
:1002C000E74A1A60026842F0807202600268920196
:1002D000FCD5E448026841F20103E348B3EB124F56
:1002E00004D140F2057203E000910CBD40F20562BA
:1002F0000260086820F003000860086840F002000F
:1003000008600868C0F381000228FAD10CBD2DE90D
:10031000F04F99B04FF6FF7B0121042008F07BFFDE
:100320000121082008F077FF0121102008F073FF59
:100330000121202008F06FFF0121402008F06BFF11
:1003400002274FF0000A8DF844708DF84570C74CB5
:100350008DF846A055468DF847A00C225146204600
:1003600008F0CBFD0C220221204608F0C6FD0C222D
:100370000321204608F0C1FD0D20109010A9204651
:1003800008F032FDBA4C0C220021204608F0B5FDE1
:100390000C220121204608F0B0FD0C220821204645
:1003A00008F0ABFD0C220921204608F0A6FD0C2226
:1003B0000A21204608F0A1FD0C220E21204608F05B
:1003C0009CFD0C220F21204608F097FD4CF2037093
:1003D000109010A9204608F007FDA64C0C22002121
:1003E000204608F08AFD0C220121204608F085FDF8
:1003F0000C220721204608F080FD0C22082120460F
:1004000008F07BFD0C220921204608F076FD0C2225
:100410000A21204608F071FD0C220B21204608F02D
:100420006CFD0C221146204608F067FD0C220D21C0
:10043000204608F062FD0C220E21204608F05DFDEA
:100440000C220F21204608F058FD4FF683701090C3
:1004500010A9204608F0C8FC874C0C220021204639
:1004600008F04BFD0C220121204608F046FD0C222D
:100470000221204608F041FD0C220321204608F00D
:100480003CFD0C220421204608F037FD0C220521FA
:10049000204608F032FD0C220B21204608F02DFDED
:1004A0000C221146204608F028FD0C220D21204682
:1004B00008F023FD0C220E21204608F01EFD0C2220
:1004C0000F21204608F019FD4FF63F00109010A9AB
:1004D000204608F089FC694C0C220021204608F0D7
:1004E0000CFD0C220121204608F007FD0C220421FE
:1004F000204608F002FD0C220521204608F0FDFCF4
:100500000C220821204608F0F8FC0C220F2120467E
:1005100008F0F3FC48F23310109010A9204608F0C0
:1005200063FC0121084608F08AFE02201290072091
:100530004FF00408CDE9130815900220169017908B
:10054000189010244020CDE9084005A901264FF05D
:10055000080981E860024FF4C070CDE90A05E001A6
:100560000C9040000D9040000E9012A80F9005A82E
:1005700008F059FACDE90265CDE900645D4603E073
:100580000220401CA842FCD32021002008F04CFB94
:100590000028F5D1684608F0D4FA39490220401CF9
:1005A0008842FCD3CDE90074CDE9026A5746202188
:1005B000002008F039FB0028F9D10220401CA84295
:1005C000FCD3684608F0BDFA032003978DE81102BA
:1005D0002021002008F028FB0028F9D10220401C2F
:1005E000A842FCD3684608F0ACFA4FF40C70CDE991
:1005F0000260CDE900842021002008F015FB0028CE
:10060000F9D10220401CA842FCD3684608F099FAB0
:1006100040F27E2008F0B3FA2021002008F004FB0D
:100620000028F9D10220401CA842FCD319B0BDE833
:10063000F08F144810B5016841F47001016006485C
:10064000016841F001010160034A00210832116094
:1006500002680D4B1A4019E000380240007000405B
:1006600019544007002004E0003C0240000802400A
:10067000000C02400010024000140240001802402A
:10068000FFFF3F0088ED00E0FFFFF6FE0260031D64
:10069000234A1A60026822F4802202602148016025
:1006A000FFF735FEFFF7D8FD1F494FF000600860E7
:1006B00010BD70B51B4C241F20681C4A10F00C01A3
:1006C0001B4804D01B4D042903D0082903D0026025
:1006D0001BE0056019E0134908390B68C3F3805625
:1006E0000B6803F03F0316B1B5FBF3F201E0B2FB78
:1006F000F3F20B680968C3F388135A43C1F301414D
:10070000491C4900B2FBF1F101602168084AC1F3BC
:100710000311121D515C0268CA40026070BD0000E6
:10072000103000240C38024008ED00E00024F400F2
:100730000000002040787D010648804706480047B9
:10074000FEE7FEE7FEE7FEE7FEE7FEE7FEE7FEE781
:10075000FEE7FEE7330600089D01000870B50D4670
:1007600086B0114600F0E1FC040023D0FE48009062
:100770008DF80C506846019402F07CF9D0B104F178
:100780000C00054607F0C6FC04F11000064607F011
:100790005AFC04F1140007F056FC284607F0B1FC9F
:1007A000304607F0E3FB2146062003F0B4FA0020B0
:1007B00006B070BD2046FBE710B586B0040008D037
:1007C000EA48CDE90004684602F054F9204600F0FA
:1007D00095FC06B0002010BD30B5040087B06FF066
:1007E0000D0019D0002917D0002A15D0E048CDE916
:1007F0000004CDE903128DF81430684602F03AF98E
:10080000054607F0AFFC94F9081011F1090F00DB61
:10081000257207F0ACFC284607B030BD30B587B074
:10082000040015D0D348CDE900040391ADF81020A1
:10083000684602F01FF9054607F094FC94F9081089
:1008400011F1090F00DB257207F091FC2846E3E760
:100850006FF00D00E0E730B587B0040015D0C64852
:10086000CDE900040391ADF81020684602F002F9CA
:10087000054607F077FC94F9081011F1090F00DB29
:10088000257207F074FC2846C6E76FF00D00C3E739
:1008900030B587B0040012D0B848CDE900046846EE
:1008A00002F0E8F8054607F05DFC94F9081011F134
:1008B000090F00DB257207F05AFC2846ACE76FF001
:1008C0000D00A9E730B587B0040012D0AC48CDE9DF
:1008D0000004684602F0CEF8054607F043FC94F9A0
:1008E000081011F1090F00DB257207F040FC2846C3
:1008F00092E76FF00D008FE7F8B50D0004466FF03A
:100900000D061FD000202860E4B104F11400074652
:1009100007F099FBB0B194F90800761DB04210DBE6
:1009200069463846E26907F057FB401C0CD0E36A81
:100930001BB10022012120469847009868B1286029
:100940000020F8BD3046F8BD07F00CFC94F9081003
:100950006FF0020507E0257207E007F003FC94F949
:1009600008106FF00905B142F5DA07F000FC2846DF
:10097000F8BDF0B587B004460D004FF000006FF0F1
:100980000D0100901AD02860C4B104F11000074690
:1009900007F059FBA8B194F908006FF00806B042BF
:1009A0000DDB69463846E26907F016FB401C0BD0A8
:1009B0002078102811D00098006822E0084607B07F
:1009C000F0BD6FF00C00FAE707F0CCFB94F90810CB
:1009D0006FF002052BE025722BE094F82000000751
:1009E00001D5009868B96748CDE90104009808B1BD
:1009F000008900E00120049001A802F03BF8009873
:100A000048B10289E36A13B1012120469847009852
:100A100028600020D3E7E36A1BB1002201212046B1
:100A2000984707F09FFB94F908106FF00B05B1424F
:100A3000D1DA07F09CFB2846C1E710B10278102AF2
:100A400002D06FF00D00704793E7F8B505460F0030
:100A50006FF00D0012D000263E60002D0ED005F183
:100A6000100007F0F0FA38B12878102807D039467E
:100A70002846BDE8F8407CE76FF00C00F8BD052083
:100A8000009603F01EF904000BD069462846FFF7D4
:100A900070FF050013D02146052003F03CF92846DD
:100AA000F8BD07F05FFB95F908104FF0FF3411F126
:100AB000090F00DB2C7207F05AFB2046F8BD0098A6
:100AC000206000986060A681A66000203C60F8BDB0
:100AD00000B587B000280DD00278102A0AD190F80E
:100AE0002020120706D5274ACDE900200391684649
:100AF00001F0C0FF07B000BD30B587B0040013D0CF
:100B00002148CDE900040391684601F0B3FF054692
:100B100007F028FB94F9081011F1090F00DB25728A
:100B200007F025FB284677E66FF00D0074E621B14B
:100B300002B112688A608B81DEE76FF005007047B2
:100B40002DE9F04186B017460C9D040025D022788F
:100B50006FF00500102A22D127B394F8202003F06B
:100B6000040602F0020211E043120008F31200082A
:100B7000CD160008851300084B140008F514000872
:100B80001F15000849160008C915000832430BD08C
:100B90004FF00108002D02D008E06FF00D0006B004
:100BA000BDE8F0810020FAE74FF000082148CDE9C8
:100BB000000403918DF814306846049701F05AFF41
:100BC000060007D135B1B8F1000F02D004982860B3
:100BD00000E02F6007F0C6FA94F9081011F1090F30
:100BE00000DB267207F0C3FA3046D8E730B587B08D
:100BF000040014D01048CDE900048DF80C106846AC
:100C000001F038FF054607F0ADFA94F9081011F12C
:100C1000090F00DB257207F0AAFA2846FCE56FF001
:100C20000D00F9E50321E1E701B1012102B1022242
:100C30001143DBE78B160008391700082DE9F04156
:100C400014460F46060030D006F11000804607F02B
:100C5000FAF9F8B121890022032003F0AAF905006E
:100C600023D0214603F0CDFAA8B9052003F029F8D6
:100C7000040010D0FB48256065600068A060387CE7
:100C8000A0812D892146404607F092F938B12046CF
:100C900000F0CAFD09E0284603F062F905E0F36AB6
:100CA0001BB12A460021304698470020BDE8F0815C
:100CB0002DE9F0471F46DDF82080164605001CD0C0
:100CC00005F11000814607F0BEF9B0B1052002F031
:100CD000F8FF040011D0266066609FB13868A060FC
:100CE000A4F80C8036892146484607F061F958B1CE
:100CF0002046BDE8F04700F097BD3046BDE8F0471C
:100D000003F02EB90020EAE7EB6A002B05D032464B
:100D10002846BDE8F04700211847BDE8F0872DE9D7
:100D2000F0411E4615460F46040012D004F1100093
:100D3000804607F088F978B107F014FA94F90810A2
:100D400011F1090F00DB267207F011FA6DB12E893F
:100D50000CE06FF00500A9E7B5B12989384603F02A
:100D60008AFE284603F0FCF80EE00026294640469D
:100D700007F01EF910B14FF0FF3097E7E36A1BB19F
:100D8000324600212046984700208FE72DE9F041A8
:100D900000260F460446466007F0E4F9277207F084
:100DA000E6F965786670E36A204673B10022042193
:100DB0009847E36A4BB10022114620469847E36A00
:100DC0001BB1002202212046984704F11000804602
:100DD00007F039F918B10021404607F0E9F804F1AD
:100DE0001400804607F02FF918B10021404607F0A3
:100DF000DFF8012D03D0042D01D0032D12D194F87A
:100E00002000C0F3800120F0040084F820000029B5
:100E100008D1A06A077104F10C00A662BDE8F04198
:100E200007F069B942E72DE9F047044690F8200041
:100E30004FF000088107A06A037C01D4590701D54F
:100E4000012700E000278168626AC0681144801AA7
:100E5000B0F5803F04D34FF6FF7543F0020300E086
:100E600085B266684FF00009B6F86600A84207D25E
:100E700005461FB125B96FF006060AE043F00203EC
:100E80002A46304605F043F8060001D0701C3BD1DD
:100E900087B1A06AC068A8420CD9E36A1BB12A4690
:100EA00003212046984794F8200040F0100084F871
:100EB000200010E0606840F64262B0F8661091428F
:100EC00003D9B0F868000A2805D3E36A1BB12A46A3
:100ED00003212046984716B1701C14D014E0606AB4
:100EE00028446062A16ACA68904200D027B1C860F5
:100EF0004FF00108C4F82490606805F014FAB8F1C6
:100F0000000F04D10DE077B1A16AC1F80C90A06A7E
:100F10000671C4F8289084F8019004F10C0007F0E1
:100F2000EAF80020F9E6606805F0FDF9F9E770B528
:100F3000044640781546012802D0042804D006E073
:100F40002046FFF770FF02E0204600F01BF8BCB11E
:100F50006068A8B1B0F8661040F6426291420FD9BD
:100F6000B0F868000A280BD294F8200020F0100096
:100F700084F82000E36A1BB12A46022120469847E4
:100F8000002070BD2DE9F0410446806A007A00F02F
:100F9000010700F0020603281FD000256068017ECB
:100FA000012920D037B1002104F02DF8002160681C
:100FB00004F030F81EB10021606804F026F8BDB1DD
:100FC00004220021606804F027F80021606804F022
:100FD0001EF8606803F023FD0FE001250021606822
:100FE00004F00FF8DAE7002104F014F8002DF0D136
:100FF00032463946606803F0D6FD90B11A49606800
:1010000004F003F804221949606804F005F818494F
:10101000606803F0FCFF21466068BDE8F04103F022
:10102000F0BFA16A00200871A062607035B16060F5
:10103000E36A1BB100220421204698472FB1E36ADE
:101040001BB100221146204698472EB1E36A1BB11E
:10105000002202212046984704F10C00BDE8F0412F
:1010600007F049B8A80000202F0F000875100008ED
:101070008D0D000810B504464078012802D00428E0
:1010800004D006E02046FFF7CEFE02E02046FFF740
:1010900079FF94F82010C80615D5606898B1B0F8AB
:1010A000662040F642639A420DD9B0F868000A28DB
:1010B00009D221F0100084F82000E36A1BB100225D
:1010C000022120469847002010BD10B54468014613
:1010D000204603F096FFFE49204603F094FFFD49A9
:1010E000204603F092FF0422FB49204603F094FFC0
:1010F0002046BDE81040F94903F089BF70B50446A9
:10110000103006F0A0FF04F1140006F09CFF04F17B
:101110000C00054606F0F5FF284607F000F82146CA
:10112000BDE87040062002F0F6BD2DE9F04106460C
:101130000F46062002F0C5FD040023D000252572CD
:10114000267006F0F0006560102805D0202803D036
:10115000402812D1002600E0042604F10C000021F2
:10116000804606F078FF40B9314604F1100006F0E1
:10117000E1FE40B1404606F0C4FF2146062002F0E1
:10118000CAFD002092E504F1140006F061FF6570CD
:10119000C4E90A574FF0FF306562C4E9060584F8D8
:1011A0002050204682E52DE9F047054614301646CA
:1011B0008846814606F047FFB8B32878E96AFFF70A
:1011C000B4FF04004FF0FF372DD02046C4F8048050
:1011D000FFF77BFF26722146484606F0E9FE40B342
:1011E00065680021284603F00CFF0021284603F023
:1011F0000AFF0021284603F008FF042200212846A8
:1012000003F00AFF0021284603F001FF0020606080
:1012100004F11000054606F0A9FE284606F018FF66
:101220002046FFF76BFF384677E5FFE76FF00500D4
:1012300073E5EB6A1BB1002211462846984700204F
:101240006BE510B50446002020712068406810B995
:10125000204600F09AFA2068BDE810400C3006F0F5
:101260004ABFF8B504461030064606F0ECFE30B929
:1012700011E02078102829D0009800F0D5FA6946AE
:10128000304606F0D1FE401CF3D1304606F06EFE2B
:10129000304606F0DDFE04F11400064606F0D3FEEB
:1012A000002825D000256946304606F0BDFE401CCA
:1012B00018D0009C2046FFF7D4FF606810B103F0FF
:1012C000DBFC65602046FFF719FFECE7009D002D71
:1012D000D5D0606810B1298903F0CDFB284602F013
:1012E0003FFECCE7304606F041FE304606F0B0FE49
:1012F000F8BD70B501680446487830B1022804D0C2
:10130000032802D0FB20207125E00846FFF7A9FF43
:101310002168486898B10A7802F0F002102A26D0B5
:101320000025202A04D0402A07D103F018F904E050
:10133000C5612068406805F083FC2068456020682E
:10134000C36A43B10022114698472068C36A13B1AB
:1013500000220221984720680C3006F0DBFE0028AE
:101360000FD02068BDE870400C3006F0C4BE0420E9
:10137000487003202072206884622068BDE87040B5
:1013800000E670BD10B50446006890F9081011F130
:10139000090F01DA21711DE0FA2121714368CBB1F7
:1013A000007800F0F00010280ED0202806D0402849
:1013B00010D11846A16803F07BF80AE0A28918460C
:1013C000A16805F049FB04E0A2891846A16803F072
:1013D0007EFC20712068BDE810400C3006F08BBE0A
:1013E00070B5040006D0A06A00B102712078102800
:1013F00003D006E06FF0050070BD12B92046FFF77C
:1014000064FE94F82000002640F3800520F00400DC
:1014100084F82000A66266706D1C09D106F0A2FE59
:1014200094F9081011F1090F00DB267206F09FFEF7
:10143000E36A1BB100220221204698471DB104F146
:101440000C0006F058FE002070BD10B50446006880
:10145000436853B1017801F0F001102912D020291E
:101460000AD0402903D0FA202BE0F42029E01846C6
:10147000A16803F022F824E0A2891846A16805F0CB
:10148000B1FB1EE0417809B1F7201AE0FFF71DFE1D
:101490002068A289A1684068114B03F0ACFC207160
:1014A00080B92168032291F820004A70C0F34000FF
:1014B0000028206810F8201F16D041F004010170A8
:1014C000FB2020712068BDE810400C300AE00000CD
:1014D0001F0D00082F0F0008751000088D0D000863
:1014E000E113000806F007BE21F004010170206836
:1014F000846210BD10B50446006802220178B2EB88
:10150000111F04D1406805F090FB002000E0FA2094
:1015100020712068BDE810400C3006F0ECBD70B5BD
:101520000446006890F9081011F1090F01DA2171E1
:1015300044E0F321217142681AB30178102901D0E7
:10154000F2201DE04078E0B9FF21104603F0FEFBD9
:10155000050014D02068103006F075FD38B1206801
:10156000103006F003FD2068103006F071FD0026F3
:1015700026712068143006F066FD18B108E0FF20DF
:1015800020711BE020680621143006F0D3FC207186
:10159000207928B1284603F042FA206846600DE021
:1015A000216802204870216828464D60216803F0B8
:1015B00028FD20689349406803F02CFD2068BDE8B1
:1015C00070400C3006F097BD70B50446006890F985
:1015D000081011F1090F01DA217117E0F3212171CF
:1015E00045689DB1007800F0F000202819D040280F
:1015F0000CD1A06810F1080F0ED0816861B100F124
:1016000008020168284602F060FF20712068BDE8EA
:1016100070400C3006F06FBD0168284602F09DFF57
:10162000F3E7A06810F1080F09D0816839B1838908
:1016300000F108020168284605F0B8FAE5E70168FC
:10164000284605F0CCFAE0E72DE9F04105460020F8
:1016500028712868416891B1007810280FD1AC68D2
:1016600007034FF6FF78BC4201D3464600E0A6B21E
:1016700028683146406803F0FEF9A41BF3D12868BE
:10168000BDE8F0410C3006F036BD016891F9082044
:1016900012F1090F07DB0A78102A01D0FA2202E0C2
:1016A0004A782AB1FB22027101F10C0006F023BD39
:1016B0004A684AB101224A700168886202680021C2
:1016C00051620068FFF7AFBBF322ECE701686FF0EF
:1016D0000C024968C1B1037C002B836801D0096802
:1016E00000E0496819600021017101680B7803F07E
:1016F000F003102B14D0202B08D0402B18D1037CE2
:1017000013B14968097C11E0027111E0037C49685A
:101710000BB1498A0AE00B7C5B07F5D5898A05E0A5
:10172000027C49680AB1498B00E0898BC26811804C
:1017300000680C3006F0DFBC10B504460068417844
:1017400019B1022901D0FB2119E0426812B10278D7
:10175000102A01D0FA2112E0227A032A01D00229AC
:101760000CD0D10701D0FFF77CFD21680420487020
:10177000206884622068BDE8104003E4F3212171F1
:10178000BDE810400C3006F0B6BC70B504460068E9
:101790004FF0FF35007800F0F000102827D0202807
:1017A00012D0402802D0FA20207170BD207A02F0B9
:1017B000EAFE21684860226820B1BDE87040124905
:1017C00002F080BE257170BD05F04EFA2168002838
:1017D00048602168F6D00978222901D101210174DD
:1017E00022680A495068BDE8704005F026BA03F047
:1017F00006FC2168002848602168E3D0BDE87040FD
:10180000084662E4A71100083D0C0008B10C00086E
:1018100010B5052002F055FA002804D0002101601F
:1018200041608160818110BD10B504000CD020683A
:1018300020B102F095FB0020606020602146BDE8E9
:101840001040052002F067BA10BD70B50D460400C7
:101850000ED0206808B102F083FB00222946104612
:1018600002F0A7FB2060002801D06060406870BDD6
:10187000002070BD10B5040006D0206808B102F049
:101880006FFB00206060206010BD70B515460E46ED
:10189000040013D0206808B102F062FB002102228C
:1018A000084602F086FB206058B14660206805813A
:1018B0002068458120686060002070BD6FF00D00D9
:1018C00070BD00206060401E70BD70B50D46040004
:1018D0000DD0002D0BD02968206802F063FC206831
:1018E00060602946BDE87040052002F014BA70BD62
:1018F0006FF00D0350B149B142B1436843B15B6829
:101900000B6040684089108000207047184670477F
:101910006FF0010070474FF0FF3238B1416809683D
:1019200021B14160086818B1002070471046704727
:1019300001207047002801D0016841607047000015
:1019400070472DE9F041884606460024FE4D00BF51
:1019500006F008FC04EB440155F8311041B106F0E3
:1019600006FC641C042CF3DB4FF0FF30BDE8F08173
:1019700004EB440745F8376006F0F9FB05EBC701B7
:1019800000204860088148813278102A02D15FEA3D
:10199000080200D001228A81C8810861486120467E
:1019A000E4E72DE9F04387B01646894600F077FF5B
:1019B00004004FF0FF380AD0206890F82010890703
:1019C00009D5B4F90A10002905DC0B202EE04046A9
:1019D00007B0BDE8F0836946FEF78EFFDB4F70B1BC
:1019E00021680978102902D05F202061F0E7414288
:1019F000102902D2A7EB800017E0052016E000981E
:101A0000002306AA90F8201041F0080180F8201069
:101A100005A9FEF7E1FE05000AD00098FEF7CCFE0E
:101A200068421028E9D2A7EB850000682061CEE764
:101A30000027B9F1000F19D0019710258DF8045037
:101A400002208DF8050003970497BDF8180001F0F7
:101A50007FF8ADF80600059802903068102800D98C
:101A6000356001A94846326812F086FC01210098D1
:101A7000FFF767FF0546401C14D0B34905EB45004E
:101A800001EBC00606F06EFB0099B6F90A208B69DF
:101A9000DB4302FA83F272818D6106F068FB28460F
:101AA000276195E70098FEF787FE1720BEE7F8B597
:101AB00017460D4600F0F3FE04004FF0FF3602D04B
:101AC000102F07D101E03046F8BD6878022801D117
:101AD000A80701D0052011E068680090688801F02F
:101AE00039F8024669462068FEF798FE40B1414247
:101AF0001029EFD29549A1EB800000682061E2E750
:101B000000202061F8BD2DE9F041002500F0C7FE5E
:101B1000040016D0206810B10178102914D0FEF707
:101B20004BFE0026676866602681266106F01AFB78
:101B3000266006F01CFB5FB138463DB102F010FA9A
:101B400006E04FF0FF3011E70125E8E7FFF76CFEF4
:101B500000200BE7F8B517460D4600F0A0FE040084
:101B60004FF0FF3602D0102F07D101E03046F8BD0C
:101B70006878022801D1A80701D0052011E0686823
:101B80000090688800F0E6FF024669462068FEF78C
:101B900062FE40B141421029EFD26C49A1EB8000B6
:101BA00000682061E2E700202061F8BD70B50D46B5
:101BB00000F075FE04004FF0FF3610D0002D10DD50
:101BC000FF2D00DBFF25E9B22068FEF77BFEA8B100
:101BD00021680978102906D05F20206170BD304649
:101BE00070BD0025EFE74142102904D25749A1EB0F
:101BF0008000006800E005202061F0E700202061FF
:101C000070BD2DE9FF4F4FF0000A8FB017465546C3
:101C1000D046CDF814A000F042FE040032D0606837
:101C200008B1059035E01298000704D4206890F8B8
:101C3000200080070DD5B4F90A00002809DC002D2A
:101C400004DD29462068FEF743FFACE00B2020614D
:101C500018E020680178102905A90CD0FEF7F5FEE0
:101C6000A8B1002DEDDC4142102907D23749A1EB84
:101C70008001096803E0FEF7E0FEF1E7052121613C
:101C80000C3001D04FF0FF3013B0BDE8F08F059855
:101C90006060206800781028059800D000682389CB
:101CA00083460089C01A80B281464F4501D9064655
:101CB00000E0BEB2109832464119584602F0EEFAE2
:101CC00020683544017810290CD1BF1B0AD09BF83D
:101CD0000D20D20706D1B4F90A20002A02DD129A9B
:101CE000D20744D01C9A4FF001085AB31D9A4AB348
:101CF000102930D0059800F1080B8089ADF8340028
:101D0000CDF820A010208DF8200002208DF82100B1
:101D1000CDF828A0CDF82CA0BDF8340000F018FFB5
:101D2000ADF82200DBF8000009901D98006810282B
:101D300002D91D98102101601D9808A902681C98FD
:101D400012F01AFB129803E0B40100201C510108A4
:101D5000C00708D020E00DF1100B00230DAA594652
:101D6000FEF73AFDCCE720680078102809D1A9EBEE
:101D70000600002805DD0598606020893044208138
:101D80000AE0C4F804A0A4F808A02068007810288D
:101D900005980CD0FFF748FDB8F1000F3FF43FAFB6
:101DA000002D3FF74EAF2846C4F810A06CE702F0B4
:101DB000D7F8F1E71CB5002300930193FFF721FF4B
:101DC0001CBD1CB5002400940194FFF71AFF1CBD34
:101DD0002DE9FF5F9946DDE90E4816468B4682469F
:101DE00000F05DFD05004FF0FF3743D02868007814
:101DF000102807D0B6B254EA080014D0B8F1100F7A
:101E00000ED108E04B4632465946504600F036F8AF
:101E100004B0BDE8F09F6078022801D1A00702D08D
:101E20000520286126E00020019000902CB1606818
:101E30000290608800F08EFE00E00290ADF80C0089
:101E4000324659466846FFF720FD040004D1694632
:101E50002868FEF751FE04466846FFF70BFD604216
:101E6000102804D2FE48A0EB8400006800E00520A2
:101E700028610CB13846CBE73046C9E72DE9FE436F
:101E80001D4617468946804600F009FD04004FF0C4
:101E9000FF3629D0206801780020102909D0009051
:101EA00001902B463A4649464046FFF791FFBDE870
:101EB000FE83022101EAD5030421029001EA5501C3
:101EC0005B1C02A80B4300903A4649462068FEF787
:101ED00037FE4142102904D2E149A1EB8001096893
:101EE00000E00521216108B13046E0E70298DEE715
:101EF0002DE9F0470E46050070D0AC69002C0DDAD4
:101F000006F030F9AC69002C06DA0EB9641EAC613B
:101F1000BDE8F04706F02BB906F029F9204600F09D
:101F2000BEFC050072D006F01DF982464FF0010993
:101F3000052E13D2DFE806F003060A0D10006889AB
:101F4000401C01E06889401E688107E0A5F80C90FC
:101F500004E00020A88101E0A5F80E906869E0B3D4
:101F6000C04F3E684EE07069B0BBB5F90A10002062
:101F700000290EDDB16861B1E21704EB527201EB8A
:101F8000E20104F007030A7809FA03F10A4200D0DB
:101F90000120A98979B170B9F16861B1E21704EB48
:101FA000527201EBE20104F007030A7809FA03F127
:101FB0000A4200D00120E98989B188B9306958B155
:101FC000E11704EB517100EBE10004F00702017826
:101FD00009FA02F0014203D108E015E016E028B149
:101FE00006F11800C6F8149006F085F8D7F80480BA
:101FF000504606F0BCF806F0B5F879688246884588
:10200000AFD13668002EAED1504681E7BDE8F087EB
:1020100070B54FF0FF35012913D0022905D00329EF
:1020200024D1D1B2904A402004E0882A07D0202051
:102030008D4A0021FEF792FB040017D00EE021200C
:10204000F6E7894A00211020FEF788FB04000DD036
:1020500094F8200040F0080084F820000021204679
:10206000FFF76FFC411C03D0A06170BD284670BD16
:102070002046FEF7A1FBF9E70023FFE62DE9FF4F1D
:1020800085B000250746009501952C464FF0010BC1
:10209000029562E04FF00009CA46C8464E4606F077
:1020A00061F80390204600F006FC30B1B0F90AA0B8
:1020B000B0F80C80C689D0F80490039806F057F861
:1020C0000698C8B1E017069904EB507301EBE300E2
:1020D00004F0070201780BFA02F001420CD0B9F1CA
:1020E000000F02D1BAF1000F06DD694601EBE301F2
:1020F0000A7802430A706D1C0798B0B1E01704EB30
:102100005071079804F0070300EBE10002780BFA26
:1021100003F0024209D0B8F1000F06D001AA02EB89
:10212000E1010A7802430A706D1C0898A0B1E0171B
:1021300004EB5071089804F0070300EBE10002780B
:102140000BFA03F0024207D036B102AA02EBE1011A
:102150000A7802430A706D1C641CBC429ADB129818
:102160009DF80010017013989DF8041001701498E8
:102170009DF808100170284609B086E52DE9F04F5A
:1021800091B016460D4681460DAA0CA90BA81A9FC0
:102190008DE8070098464FF0000A32462946484627
:1021A000FFF76CFF04007CD127B1386810B978685C
:1021B000002876D0002004A9039081E8610101463F
:1021C000089009A80A9005F046FF18B14FF0FF30BB
:1021D00011B05AE505F0C6FF224A03AB116803911E
:1021E00001B14B601F4903AB0B604A68521C4A6047
:1021F00005F0BDFF00244FF0010B3EE05DB1E0179C
:1022000004EB507005EBE00004F0070201780BFAD4
:1022100002F001421BD15EB1E01704EB507006EBF7
:10222000E00004F0070201780BFA02F001420ED13F
:10223000B8F1000F20D0E01704EB507108EBE1007B
:1022400004F0070201780BFA02F0014214D0204694
:1022500000F031FB019005F085FF0146019805E093
:102260001C51010814000020F11E00084269521C94
:102270004261084605F07BFF641C4C45BEDB0DAA9D
:102280000CA90BA88DE8070043463246294648466C
:10229000FFF7F4FE040019D18FB14FF47A7178681A
:1022A00000E07AE000F5FA7090FBF1F1386800EB9D
:1022B0004002C2EBC01011EBC00102D002E00021CD
:1022C00000E001210A9805F0F5FE8246002737E07C
:1022D0005DB1F81707EB507005EBE00007F007025F
:1022E00001780BFA02F001421BD15EB1F81707EB3F
:1022F000507006EBE00007F0070201780BFA02F0DD
:1023000001420ED1B8F1000F19D0F81707EB507148
:1023100008EBE10007F0070201780BFA02F0014236
:102320000DD0384600F0C7FA029005F01BFF0146B9
:1023300002984269521E4261084605F018FF7F1C50
:102340004F45C5DB05F00EFF0246039810B1DDE9ED
:1023500003014160F74803A903688B4202D1039946
:10236000016002E0DDE9031319604168491C416026
:10237000104605F0FCFE0A9805F0C3FEBAF1FF3FD7
:102380000BD00DAA0CA90BA88DE8070043463246D6
:1023900029464846FFF772FE044615B19DF82C0009
:1023A000287016B19DF830003070B8F1000F03D0DE
:1023B0009DF8341088F80010204609E72DE9F04117
:1023C00000260F46354600F06AFA04004FF0FF3849
:1023D00028D0206830B10178102906D05F20206114
:1023E000BDE8F0816B202061FAE737B1012F06D0FC
:1023F000022F11D016202061F2E7012600E001250E
:102400002A463146FEF710FC4142102906D2CA493D
:10241000A1EB8001096802E00126F0E705212161B6
:102420000028DDD04046DBE72DE9F04385B0994632
:102430001546884600F033FA040027D0002600969F
:1024400010278DF8007002200196029603968DF8F1
:1024500001004B4604A90DF102022068FEF7BCF909
:10246000BDF8020000F074FBADF802000498019082
:102470002868102800D92F60694640462A6811F064
:102480007BFF0020266105B0BDE8F0834FF0FF30F0
:10249000F9E70023C8E70123C6E730B4D0E90232E8
:1024A000016800697BB3062B58D0A3F57063FF3B2E
:1024B00064D141F20604131BA2423AD006DC022A80
:1024C0000BD0082A09D0202A58D106E0012B1BD0B6
:1024D000022B08D0042B51D12EE00B685B681B7ACD
:1024E000134003604AE00A68127802F0F003102BF0
:1024F00005D0202B05D0402B3FD103223DE0012207
:102500003BE0022239E01DE00A690AB1732A0CD1CE
:102510000A6892F908205342102B04D2864BA3EB91
:102520008202126800E005220A6102600020086150
:1025300024E00A68D26920E00A685268127C02F03E
:1025400001021AE0012A05D0022A17D10A6852684E
:10255000927A12E00A685268527A0EE0012A02D09A
:10256000022A0BD105E00A685268927FC2F38012FA
:1025700003E00A685268D2F88C200260086830BC18
:102580000C3005F0B8BD2DE9F04F87B09A461746DC
:10259000894683460024109E00F081F905004FF023
:1025A000FF3865D0BAF1000F09D046B15FEA0900E3
:1025B00029D006282FD0B9EB18503DD102E00E20CB
:1025C000286155E041F20601781A8F421FD006DCDF
:1025D000022F1CD0082F1AD0202F2DD117E0012850
:1025E00015D0022813D0042826D13068042800D240
:1025F000162428680178202903D14068007C8007D0
:102600001CD561241BE0012F01D0022F14D13068AA
:10261000042803D315E03068042801D216240EE004
:1026200028680078102803D0002007B0BDE8F08F9C
:10263000012F06D0022F04D05C2400E00CB12C61E5
:1026400016E0CDE9005BCDE904A6CDE902978DF84F
:10265000184001226946394800F0A2F92868002193
:102660000C3005F027FD9DF9180028610028DCD00A
:102670004046DAE7D0E90232016800697BB3062BF5
:102680003CD0A3F57063FF3B4FD1082A08D0202A25
:1026900006D0A2F58052063A10D0042A45D111E0A6
:1026A00000680028086804D04368187A104318723C
:1026B0003BE04068037A9343037236E00A6800689F
:1026C000D06132E00068002808684068027C02D0CF
:1026D00042F0010201E022F00102027425E0FFE76E
:1026E000012A06D0022A20D10A6800785268907226
:1026F0001BE00A6800785268507216E0012A02D086
:10270000022A12D10CE00068002808684068827F25
:1027100002D042F0400201E022F04002827704E061
:102720000A6800685268C2F88C0008680C3005F02E
:10273000E2BC0000140000201C5101089B2400088A
:102740002DE9F04387B0984615460E46814600F0C5
:10275000A6F804004FF000004FF0FF3758D0B8F152
:10276000000F06D0FEB1062E25D0B6EB175132D1A0
:1027700001E00E2032E0082D19D0202D17D0A5F54C
:102780008051063913D0042925D10E99042900D28D
:10279000162021680A78202A03D14968097C890714
:1027A0001BD561201AE0012D01D0022D13D10E9905
:1027B000042903D314E00E99042901D216200DE058
:1027C00021680978102902D0002007B05CE6012DAD
:1027D00006D0022D04D05C2000E008B1206117E093
:1027E0000EA9CDE90481CDE90049CDE902658DF856
:1027F000180001226946364800F0D2F8206800210E
:102800000C3005F057FC9DF9180020610028DCD041
:102810003846DAE770B514460D4600F040F84FF040
:10282000FF3168B12B4AD54208D15CB1216849B16A
:10283000016811F8202F42F0020208E0262202610E
:10284000084670BD016811F8202F22F002020A70BC
:1028500000210161084670BD70B514460D4600F0B8
:102860001EF801004FF0FF3013D00B68002B10D082
:10287000032D0AD0042D0CD161080AD1E00713F80A
:10288000200F07D040F0020006E093F82000C0F3CC
:10289000400070BD20F002001870002070BD0428B8
:1028A00007D20D4900EB400001EBC0000168002990
:1028B00000D100207047042808D200EB40010648F0
:1028C00050F8312012B100EBC10070470020704772
:1028D000752600088299FB7FB4010020964808B550
:1028E000016809B1406834E093486946083003F054
:1028F000A1FF009B18780628F6D2DFE800F0030657
:10290000151B2028986802C823E0D96891F8310087
:1029100010F0600F986802D005F086F801E004F02E
:10292000A6FB082000990FE0083393E8070003F0A6
:10293000DDFE07E0D3E9030103F05AFF02E0D3E92B
:10294000021088470720009901F0E5F9CCE7D3E9A8
:1029500002108847C8E72DE9F041064676480D4643
:10296000083005F070FBC0B1082001F0AAF904009E
:102970004FF0FF370ED0012020706F48C4E9026588
:102980002146083005F014FB002804D02146082019
:1029900001F0C1F93846BDE8F0816FF00500FAE7B3
:1029A0002DE9F0410646644890460D46083005F092
:1029B0004AFB00B3072001F084F904004FF0FF3711
:1029C0000DD004202070C4E902655B48B8F1000F07
:1029D000214600F1080004D005F0DDFA09E0384690
:1029E000D9E705F0E5FA20B12146072001F093F977
:1029F000F5E70020CFE76FF00500CCE770B506469D
:102A00004D4814460D46083005F01DFB90B10720D7
:102A100001F057F901000AD0022008708E60464884
:102A2000C1E90354083005F0B6FA002070BD4FF03C
:102A3000FF3070BD6FF0050070BD70B505463E48B3
:102A40000C46083005F0FFFA88B1072001F039F98B
:102A5000010009D0032008703748C1E90354083049
:102A600005F099FA002070BD4FF0FF3070BD6FF097
:102A7000050070BD30B585B06FF0050504460572E0
:102A80002D48083005F0DFFA88B100208DF80000ED
:102A9000294869460830029405F07DFA60680021F3
:102AA0000C3005F007FB94F9080005B030BD28464E
:102AB000FBE770B505460C46072001F002F9002837
:102AC00003D005210170C0E9025470BD0146072002
:102AD00001F021B910B504461748083005F0B3FAE3
:102AE00030B121461448BDE81040083005F060BA06
:102AF0006FF0050010BD38B50D46044600F002FF2A
:102B00000D480421C0E90045083005F013FA0820FB
:102B1000009040F628230022084909A005F006FB92
:102B200038BD01F01DBA01460022074838E70146CA
:102B30000022064834E700001C000020DD280008C1
:102B40005443502F49500000232B00086B390008D4
:102B500040BA704740BA704700BA704700BA704731
:102B6000002812D0018B4369FF220B44491C0183CA
:102B700083F8F020002205E043690B44491C0183DF
:102B800083F8F020018B4429F6D370472DE9F041FA
:102B900017460C4606000CD07CB100224FF49A7107
:102BA000104601F006FA206150B1627BFA4952B139
:102BB0000CE06FF00D00BDE8F0816FF00500FAE762
:102BC0004FF0FF30F7E70A68521C0A60096821607D
:102BD0004068012160610170606900254170616990
:102BE00096F82A0088706069C5702068FFF7B4FF06
:102BF0006169082F48606069058160694581606985
:102C0000C56008D0042F06D0032F07D1207B0528EC
:102C100001D0042802D161697068C86060690561EB
:102C200060694561606985615FF0000096F82A106F
:102C3000814203D9311891F82B1000E0002100F1F6
:102C40001C026369401C80B299541028EED3002006
:102C500000F12C016269401C80B255544028F7D322
:102C60005FF0000000F16C016269401C80B25554B5
:102C70008028F7D36169C948C1F8EC00258300209A
:102C8000626900F1F0015054401C80B24428F7D32F
:102C900001223521204600F05CFD3946204600F037
:102CA00050FD002087E7F8B5446A054600206062C1
:102CB0000621204600F06EFD012221462846FFF73E
:102CC00065FF060030D102223921204600F041FD87
:102CD000298D204600F04DFD04223721204600F0CA
:102CE00038FD0121204600F02CFD0321204600F094
:102CF00028FD1C21204600F024FD0621204600F07E
:102D000020FD2046FFF72CFF208BF03081B2206998
:102D100001F0DBF900954323A14A2169606803F0C3
:102D2000E5FE204600F002FD607B401CC0B26073EF
:102D3000062802D20121814000E03C2101EB410044
:102D4000C0EBC1104FF6FF7101EAC0004FF4FA71F9
:102D500000F2F310B0FBF1F060833046F8BD70B5BF
:102D6000446A05460821204600F014FD002204F1C3
:102D70002401284604F04BFD607B401C6073012059
:102D8000608370BD10B5028B44690B0E1444521C55
:102D9000028384F8F030028B44690B0C1444521CFB
:102DA000028384F8F030028B44690B0A1444521CED
:102DB000028384F8F030028B43691344521C02836F
:102DC00083F8F01010BDF8B5446A0546012120468D
:102DD00000F0E0FC032221462846FFF7D7FE06005C
:102DE00048D102223921204600F0B3FC298D20462B
:102DF00000F0BFFC04223221204600F0AAFC606AE9
:102E0000FFF7ACFE01462046FFF7BCFF0422362147
:102E1000204600F09EFC206AFFF7A0FE01462046F7
:102E2000FFF7B0FF04223721204600F092FC012179
:102E3000204600F086FC0321204600F082FC1C2185
:102E4000204600F07EFC0621204600F07AFC204659
:102E5000FFF786FE208BF03081B2206901F035F952
:102E6000009543234E4A2169606803F03FFE2046E7
:102E700000F05CFC607B401CC0B26073062802D28C
:102E80000121814000E03C2101EB4100C0EBC11079
:102E90004FF6FF7101EAC0004FF4FA7100F2F3102F
:102EA000B0FBF1F060833046F8BDF8B5446A0546E2
:102EB0000521204600F06EFC032221462846FFF73C
:102EC00065FE06001CD102223921204600F041FC9B
:102ED000298D204600F04DFC2046FFF741FE208B57
:102EE000F03081B2206901F0F0F80095432304F13D
:102EF00020022169606803F0F9FD204600F016FC0D
:102F0000607B401CC0B260730A2804D24FF4FA619F
:102F100010FB01F001E044F6206080B24FF4FA713A
:102F200000F2F310B0FBF1F060833046F8BDF8B565
:102F3000446A05460421204600F02CFC0322214669
:102F40002846FFF723FE06001BD102223921204626
:102F500000F0FFFB298D204600F00BFC2046FFF718
:102F6000FFFD208BF03081B2206901F0AEF80095B2
:102F700043230B4A2169606803F0B8FD204600F046
:102F8000D5FB607B401CC0B260730A280AD24FF4A4
:102F90007A7110FB01F007E0280000206382536380
:102FA0001452010842F2107080B24FF4FA7100F22C
:102FB000F310B0FBF1F060833046F8BDF84810B56F
:102FC000046825E0616A11B3C88B421ECA830128D8
:102FD00006D0626A918B481E908301290CD016E0BE
:102FE000616A2046097B012903D00A2901D00529FD
:102FF0000DD1FFF79CFF0AE0616A2046097B012999
:1030000003D00A2901D0052901D1FFF74EFF24681A
:10301000002CD7D110BDF8B5446A064603212046DE
:1030200000F0B8FB032221463046FFF7AFFD050054
:1030300028D102223921204600F08BFB4FF4107179
:10304000204600F096FB04223221204600F081FB4E
:10305000606AFFF783FD01462046FFF793FE204696
:10306000FFF77EFD208BF03081B2206901F02DF852
:1030700000964323CB4A2169606803F037FD204660
:1030800000F054FB607B401CC0B260730A2804D27D
:103090004FF47A7110FB01F001E042F2107080B23F
:1030A0004FF4FA7100F2F310B0FBF1F060832846A0
:1030B000F8BDF8B5446A05460021204600F06AFBD9
:1030C000002020626062A062E062A063606320630F
:1030D000072221462846FFF759FD060013D1204656
:1030E000FFF73EFD208BF03081B2206900F0EDFF4C
:1030F0000095432304F120022169606803F0F6FC87
:10310000204600F013FB607B401CC0B260730A28AD
:1031100004D24FF47A7110FB01F001E042F210701A
:1031200080B24FF4FA7100F2F310B0FBF1F060835B
:10313000284600F080FE9C49284600F016FE9A4979
:10314000284600F00AFE9849284600F00AFE30465C
:10315000F8BD2DE9FC41050059D06C6A002C56D011
:10316000616B4FF03C034F1C4FF480364FF001026F
:103170004FF6FF700AD01E31B1FBF3F1B14200D31C
:1031800001460904090CA18300D1A283A16B4F1C45
:103190000AD01E31B1FBF3F1B14200D3014609045C
:1031A000090CE18300D1E283A28BE18B8A4202D336
:1031B00009B10021A183A17B09B1A06A09E094F8BB
:1031C00024107F2901D8FF2003E0C02901D36FF02C
:1031D0007F400090E06A019028B9606A0099084039
:1031E00040F08070019004F12401284600F0BDFDFC
:1031F0006946284600F0B5FD01A9284600F0ADFD5E
:10320000284600F065FE0A21204600F0C3FABDE81A
:10321000FC8170B56248002504680EE0606A58B110
:10322000418B012903D9A1F10101418304E003D1BC
:103230004583204600F0B6FA2468002CEED170BD1C
:1032400070B50C4605463C21204611F0AEF86C6284
:1032500070BD10B50446406A002803D000F085FB1D
:103260000020606210BD10B5002813D050F8244F24
:10327000417B002C21F0080141730BD0606818B12C
:1032800003F0DEFC002060602046BDE81040002115
:1032900000F080BA10BD2DE9FF5F044600208A4689
:1032A00003900A21414811F080F8BAF80A002C284E
:1032B00018D3DAF80400A060BAF80800DFF8EC8050
:1032C000F0256FF00509574604E06A1A401A3F6876
:1032D00095B280B237B17989A942F6D90190D7F871
:1032E00004B0B5E06FF0010004B0BDE8F09F00BF8E
:1032F000A81C80B202907A89681C4FF0FF36824287
:1033000003D90BEB0500407803E0386808B140684A
:103310000078342904463AD00BDC032925D003DC9D
:10332000D1B101290DD11CE0062923D0332908D1C0
:1033300029E035292FD036293BD03A293DD03B29E9
:103340003FD000242844801C85B244B30020009064
:1033500018F8060060B36BE000206D1E0446ADB2A5
:10336000F0E7042854D10626ECE7042404284FD3C0
:103370000726E7E781074BD1082800D30824A0429D
:1033800046D30826DEE7042842D10326DAE70128DF
:103390003ED10026D6E701283AD10126D2E747E000
:1033A0004000002014520108105201083C02002085
:1033B0000BE004282CD10226C4E7042828D10426D7
:1033C000C0E7042824D10526BCE7042C01D22246FC
:1033D00000E0042269463846029B00F05FFF042C9F
:1033E00012D9A00714D1012108F806100098FFF7A0
:1033F000B3FBF949241FE4B241F826000298001DEE
:1034000080B2761C0290A3E7042C03D0012C05D0D7
:10341000484669E70098FFF7A1FB01E09DF800002E
:103420000090012008F80600EB48009940F82610AB
:103430007889A8420BD8291A8DB20199081A80B24E
:10344000019085420CD258B13F68D7F804B03FB123
:103450001BF80510FF2903D001988542FFF448AFFF
:1034600098F8001051B1DC490022096888F8002062
:1034700001290DD0022904D0032907D00398002880
:10348000C7D000202C2503906C201CE7012003905E
:103490006C25EC2017E72DE9F0410446456A508978
:1034A000516816464FF000082C2872D3087802287D
:1034B0006FD1002094F82A2008E023180F1893F801
:1034C0002B303F7FBB4264D1401CC0B28242F4D853
:1034D0004868FFF743FB296888425AD1314628469D
:1034E000FFF7D9FE00BBBC4928314878E0B1BA4AA1
:1034F0001079052804D0062817D0022836D048E0D5
:10350000287B012806D003280BD0042809D00528E1
:1035100007D03EE0204600F090F92046FFF71FFC60
:1035200037E02046FFF715FE33E0287B032805D05F
:10353000012803D0042801D005282AD12046676A33
:1035400000F079FCA549204600F00FFCA349204675
:1035500000F003FCA149204600F003FC0C21384692
:1035600000F018F92046FFF79EFB12E0287B0628A2
:103570000FD1A5F81A802746646A887848B1906808
:10358000FFF7EAFA2062A068006960623846FFF738
:103590001AFC3046C5F80880BDE8F04100F0E0BCF8
:1035A00070B505006FF00D0108D095F831006C6A18
:1035B00020F0080085F83100800601D4084670BD6F
:1035C000288D4FF0FF36B0F5107F2ED334B36068EE
:1035D00008B103F035FB3C21204610F0E6FE03F075
:1035E00043FB606008B3017A442241F0200101727C
:1035F0007A49606803F030FA43227849606803F042
:10360000F1FA2A467649606803F017FB2846FFF76F
:103610004AFB60B12846FFF726FE06E03C2000F09A
:103620005BFA040001D06C62D5E7304670BD15F836
:10363000311F41F00801297070BD30B591B005000F
:1036400041D03C2101A810F0B0FE082101A800F0F3
:10365000A1F8686A08B144686CB903F005FB04007E
:1036600031D00294207A442240F0200020725B493D
:10367000029803F0F1F9082201A92846FFF786FA1B
:10368000E0B90222392101A800F063F8298D01A8D0
:1036900000F06FF801A8FFF763FABDF81C00F030E6
:1036A00081B2059800F011FD009543234D4A204654
:1036B000059903F01BFA01A800F038F802980028D9
:1036C00001D003F0BDFA11B030BD70B5446A0546B3
:1036D000002C1BD0207B002604280FD004DC0028FF
:1036E00014D0032804D109E0052807D00A2805D002
:1036F00066732846BDE87040FFF7D5BA284600F04B
:103700009AFB66732846BDE8704084E470BD0028CB
:103710000BD0426A002A08D0137B082B05D1096818
:10372000526A914201D100F0B4B8704710B504005C
:1037300006D0206908B100F013FC00202061606110
:1037400010BD028B43691344521C028383F8F010AE
:10375000704710B5038B44691C445B1C038384F8D9
:10376000F010018B43690B44491C018383F8F0205E
:1037700010BD10B5028B44690B0A1444521C02831D
:1037800084F8F030028B43691344521C028383F89F
:10379000F01010BD027B8A4203D0017300214173F7
:1037A0004183704710B5426A0446117B0C291BD037
:1037B000062919D001291BD0082926D005292FD088
:1037C000042931D0032937D1507B02281BD220464F
:1037D000BDE810401FE40000140200201052010850
:1037E0009734000814520108BDE81040FFF75BBA97
:1037F000507B052804D82046BDE81040FFF7E3BA07
:103800002046FFF756FC2046EEE7507B0128204675
:1038100003D8BDE81040FFF7A2BABDE8104098E415
:10382000BDE81040FFF741BB507B0828E8D8204690
:10383000BDE81040FFF77BBB10BD70B5446A0020A7
:103840002E4DA062E062E978A5F1280609B1F16881
:103850002163297909B1316901E0216B490861636C
:10386000697909B1716900E0216BA163A1680969F7
:103870006162A97921B1B069FFF76EF9A0620120F8
:10388000A073E879002803D0F069FFF765F9E062DA
:1038900070BDF8B5446A06460C212046FFF77AFF52
:1038A000042221463046FFF771F905001ED104229B
:1038B00032212046FFF74DFF606AFFF74FF90146BE
:1038C0002046FFF75FFA2046FFF74AF9208BF030D9
:1038D00081B2206900F0F9FB00964323084A216970
:1038E000606803F003F92046FFF720FF607B401C6F
:1038F0006073142060832846F8BD00003C0200205D
:103900001452010810B500F057FE04F00BFC00F053
:103910000FF800F0A1F900F01FFAFEF711F802F01D
:10392000C5FF00F067FEBDE8104002F04DBF00008B
:1039300030B4C648C64B20F003004FF4A0421860D4
:10394000002102804180017100F5A04101245960ED
:103950000C710A804A809860BE482146A0F89420E5
:1039600030BC03F10C0004F076BB70B504002ED01F
:10397000B74DB84E2868844202D36868844209D3A0
:1039800004F0F0FB36F89C1F491C3180BDE8704004
:1039900004F0EDBBAE4800210C3004F08BFBA4F129
:1039A000080000210171A968884200D2A8602A8815
:1039B0000188821A891A36F8962F511A318000F040
:1039C0001DF9BDE87040A2480C3004F094BB70BDF6
:1039D0002DE9F05F81464FF6FC70C91C01EA000436
:1039E0004FF4A04B0C2C01D20C2401E05C451DD8F7
:1039F0009748DFF860A20168894502D3436899457A
:103A000009D304F0AFFBBAF89C20521CAAF89C2002
:103A100004F0ADFB0FE0A9F108058046681A86B2F4
:103A20002888801B083887B2BC4203D94FF00000B9
:103A3000BDE8F09F01D14846FAE785484FF0000104
:103A400000F10C0004F036FB2A88D8F8001040463C
:103A500002EB010C4FF0000E9CF804201AB304F1A5
:103A60001402BA421AD83219083293B2D0F808C0F8
:103A7000CA18624501D2C8F8082082F804E02888F4
:103A8000108056802B801088584501D0891C4352E5
:103A9000BAF896103A1B891AAAF896106C480C309E
:103AA00004F029FBC7E732190832D0F80880BCF8C7
:103AB000003092B2E04503D101EB020CC0F808C01F
:103AC000881880F804E0038046802A8000885845E2
:103AD000DED0891C4252DBE72DE9F04700280DD0EB
:103AE0004FF6FC71C01C00EA01044FF4A04A0C2CF4
:103AF00001D20C2404E0544502D90020BDE8F0872F
:103B0000534800210C3004F0D5FA514EC4F5A047BB
:103B1000B3683068191A8AB24E4957E0851895F88B
:103B200004C0BCF1000F50D1B5F800C0ACEB020CE2
:103B3000ACF1080CA44548D32F8804F1140CBF1A2B
:103B4000083F4FF00109674529D3171908371FFAB5
:103B500087FC00EB0C074FF0000887F80480B5F8ED
:103B60000080A7F800807A80A5F800C085F804904E
:103B70003A88524502D0871C22F807C0B1F8962037
:103B80000834224492B2A1F89620B1F898409442A9
:103B900001D2A1F898209D4210D1716809E085F802
:103BA00004902A882C1A121BB1F89640E9E71A886B
:103BB00013181A790AB18B42F9D1B36024480C303A
:103BC00004F099FA05F1080098E7825A9742A5DCBB
:103BD00031F89A0F401C08801D480C3004F08BFA15
:103BE0008BE770B500FB01F4A0B2FFF775FF05008D
:103BF00002D0214610F0D9FB284670BD30B51449DB
:103C000003880A681344941C98420DD01D795DB94D
:103C10004D68AB4208D08D689D4200D188601D88F8
:103C200005801B88851A1D534388134483420BD09B
:103C30001D79002D08D18D68854200D18B600188E7
:103C400019800088991A015330BD000049020020F4
:103C50002C00002064AD0020F0B500203B4B3C4C14
:103C6000024600BF03EB0011A1F8A620A1F8A8208E
:103C7000A1F8AA2034F81050401C80B2A1F8A4503A
:103C80000C28EFD33348334D20F00303304E00208F
:103C9000333D183E45F82020002109E055F82070FA
:103CA0001F6045F8203036F81070491C3B4489B23B
:103CB00034F810708F42F1D8401C80B20C28E9D340
:103CC000F0BD70B504460C2801D3002070BD04F08F
:103CD00049FA02461F481D49333801EB041150F8D8
:103CE00024507DB12B6840F82430B1F8A600401C68
:103CF00080B2A1F8A600B1F8A830834206D2A1F89C
:103D0000A80003E031F8AA0F401C0880104604F018
:103D10002EFA284670BD70B50446002914D00D4611
:103D200004F020FA094901EB041232F8A61F491EDB
:103D300011800849333951F824202A6041F8245071
:103D4000BDE8704004F013BA70BD000064AD0020FF
:103D5000745101088F520020704701B10968C16099
:103D6000704701B109688160704770B50C00054665
:103D700028D02068696888421ED07648006809E02B
:103D800001686A68914204D1C66800F075FF304648
:103D900000E0C0680028F3D16F48006809E007D050
:103DA000016829B16A68914202D144B12168016079
:103DB000C0680028F3D12CB12068686070BD4FF056
:103DC0000001F4E74FF00000F7E770B51D46164616
:103DD0000446FFF7CAFF31462046FFF7C2FF2946D7
:103DE0002046BDE87040B8E72DE9F041044606A83A
:103DF00090E8E00000206060A060E06084F831009E
:103E00006062C4E90705554D287884F83400401CE9
:103E1000287020462761FFF7D8FF2046B04710B131
:103E20000020BDE8F0816868206020466C60F8E7FB
:103E30004A498860704790F83110CA0707D021F0CE
:103E4000010180F83110890601D503F003BC7047E9
:103E500010B5040019D094F83100C00702D02046F4
:103E6000FFF7E9FF3D484168A14210D12168416058
:103E700006E00A68A24209D122680A60002904D03B
:103E80008168A14201D10021816010BD1146002945
:103E9000EFD110BD10B5010005D088783038C2B21E
:103EA0002E48406811E0002010BD00BF90F834306B
:103EB000934209D10B7890F83240A34204D14B7859
:103EC00090F83340A342EFD000680028EED110BD37
:103ED00090F83110CA070AD141F0010180F8311081
:103EE000CA0604D5890602D5011D03F060BC7047DF
:103EF00010B5044690F83100C10619D440F0100006
:103F000084F83100606A10B12046FFF7DEFB94F8B8
:103F10003100C10705D0800603D5211D204603F0DE
:103F200046FCE169002903D02046BDE8104008475F
:103F300010BD90F83110CA0607D521F0100180F8A5
:103F40003110C169002900D008477047002800D00F
:103F5000C161704764000020600000203C00002028
:103F600070B504000AD0002504F0FCF8E189491E70
:103F70008EB2E68104F0FBF816B110E0002070BDAF
:103F8000207B266803280CD001280DD002280BD0F6
:103F90002046FFF7EAFC6D1CEDB23400E4D1284660
:103FA00070BD21460B2001E021460A20FFF7B3FE39
:103FB000F1E72DE9F05F16460D4630B1012806D035
:103FC000022806D003287ED105E0362704E0222708
:103FD00002E00E2700E000274FF0010A4FF0000832
:103FE000F6B3012E5CD0022E5AD0032E6BD10B20DB
:103FF000FFF767FE040064D0E0191330267320F049
:104000000300C4E90080FF1C27F00300C0F5C06076
:1040100041462581A84200DD284660815746A4F824
:104020000EA0A1462D1A4FF4C06B884616E00B2057
:10403000FFF747FEB8B1067380F80D80C0F8008026
:10404000A9B2C9F800000181594500D35946418100
:1040500000F110024260C7816D1A8146002D00E018
:1040600005E0E4DC28E02046FFF77AFF2BE007F1CB
:10407000130020F00301E81C20F00300084480B284
:10408000FFF72AFD04001ED0E019133020F00300D2
:10409000606025816581C4F8008084F80C800BE0A5
:1040A0000A20FFF70EFE04000BD0C4F8048025811F
:1040B0006581C4F800802673A4F80EA084F80D80F2
:1040C0002046BDE8F09F0020FBE770B502898A42D8
:1040D00021D98A1A0D46044605E0281A85B220899E
:1040E0001044208124686089A842F6D3207B50B90F
:1040F0006089A84207D0A088001B284481B22046CE
:10410000FFF766FC044665812581206808B1FFF74A
:1041100027FF0020206070BD10B541B138B10029E3
:1041200007DA4A4293B242899A4223D302E000203E
:1041300010BD8BB2027B446832B1032A04D0022A3C
:104140000AD0012A08D015E0621A00F1100342607B
:104150009A4208D244600DE000290BDA42899A4263
:1041600008D3621A426042890A444281028911449A
:104170000181DCE7012010BD002102E0491C00683C
:10418000C9B20028FAD10846704710B5040008D01B
:1041900003F0E8FFE189491CE181BDE8104003F02C
:1041A000E6BF10BD10B500280FD000290DD004E0E7
:1041B00003890C892344038110460268002AF7D141
:1041C00002890B891A440281016010BD10B50C46AA
:1041D000FFF7E8FF2046BDE81040D6E710B50468B9
:1041E0005CB101894289891A2181002101604189DC
:1041F00001812046FFF7B4FE08B1002010BD204623
:1042000010BD2DE9F0474FF000070C4605003E4673
:104210006FF00D0932D07CB32889218988422DD3D3
:104220006FF0050A6889C11B6089801B814201DB30
:1042300080B200E088B280466068424681196868B2
:10424000384410F099F807EB080087B206EB080035
:1042500086B26089B04201D8246800266889B842D5
:1042600002D12D68002745B15CB16089218988425F
:1042700007D1206860B904E000E06CB14846BDE8B1
:10428000F0873DB168892989884203D1286808B13F
:104290005046F4E7002CC5D10020F0E72DE9F047A7
:1042A000164689464FF000080028E8D0B9F1000F03
:1042B00002D0002704461FE00020E0E72BB1608910
:1042C000984202D8181A83B215E06089C01A85B2E4
:1042D000B54200D9354660682A46C11809EB070087
:1042E00010F04AF808EB05001FFA80F8781987B239
:1042F000701B86B2002324680EB1002CDED140462C
:10430000BDE72DE9F041002788461446002807D074
:10431000B8F1000F1AD00189A14203D26FF00D004D
:10432000BDE8F08105460FE068892646B04200D21C
:10433000064608EB07013246686810F01DF8A01B1E
:1043400084B2B8192D6887B2002CEDD10020E7E7C0
:1043500070B5044600680B4670B1218900221846EA
:10436000FFF727FE050007D02146FFF74AFF20464A
:10437000FFF7F6FD284670BD204670BD02E0891AA1
:10438000006889B2002804D042898A42F7D940687F
:10439000405C7047F0B517460E46054602E0301AFD
:1043A0002D6886B225B16889B042F8D900240FE0A3
:1043B0004FF6FF70F0BD301981B22846FFF7DEFFDF
:1043C000395D04F10104884201D0A0B2F0BDA4B26D
:1043D0009C42F0D30020F0BDF0B507460089154699
:1043E0008C46411B8EB2D11888420CD31C4608E083
:1043F0002B46624621463846FFF7CCFF30B12044B9
:1044000084B2B442F4D94FF6FF70F0BD2046F0BD3F
:1044100070B506460D004FF6FF700CD029780029C4
:1044200009D031890446A14205D028460FF0FCFF8F
:10443000A04201D3204670BD82B229463046BDE875
:1044400070400023C8E700002DE9F047814640682E
:10445000DFF858810026477A3546D8F8004022E038
:10446000207CB8421CD12CB1206818B15049096891
:10447000884215D1D4F814C0BCF1000F10D04D4BB8
:104480004A462146A069E04750B14FF00009012695
:1044900035B1E068E860D8F80010E160C8F8004085
:1044A0002546E4680EB9002CDAD13046BDE8F08725
:1044B00001B1096801600020704701B109684160DD
:1044C00000207047C0E9051270472DE9FE430E46F3
:1044D0000446904614213046FFF71EFE4FF0FF378A
:1044E00068B1002211460120FFF763FD05000DD0E1
:1044F000308970B131462846FFF768FE09E035463D
:104500006FF013013046FFF707FE10B13846BDE8E3
:10451000FE83404602F08CFDA8B1E4B12168D1B120
:104520002146227C637ACDE900320290A37A42468A
:10453000284602F083FE0446B54202D02846FFF723
:104540000FFD2046E3E7B54202D02846FFF708FDFD
:104550006FF00300DBE7011DE3E7021DB5E7134938
:104560000A68824209D1D2680A6008E0D16819B1AC
:10457000814201D1C168D1600A46002AF6D10146C4
:104580000020FFF7C8BB70B505460020FFF799FB78
:10459000040009D01C210FF008FF2574FF20A07231
:1045A00002480168E1600460204670BD48000020B8
:1045B000AC000020A800002010B58CB030220A49C1
:1045C00068460FF0D9FE094900206A4601EB001445
:1045D00052F82030401CC4F8A0300C28F6DB04A0B0
:1045E000C1F890000CB010BD8C51010864AD0020E2
:1045F0004D454D00704710B5040009D0606808B102
:10460000FFF7AEFC2146BDE810400420FFF783BB56
:1046100010BD10B503E00468FFF7EDFF2046002849
:10462000F9D110BD70B50446007E002816D00A28C6
:1046300014D0012812D0606F002510B1FFF790FC54
:1046400065674FF0FF30A086E06EFFF7E2FF206F56
:10465000FFF7DFFFE5662567A4F86A5070BD2DE916
:10466000FC47FC4D4FF4FA7A4FF00008E868401C14
:10467000E860A878401CA8700027AC69F7E000BF8C
:1046800094F82110A878814201D1E468EFE084F821
:1046900021000026227EB146022A03D194F846006A
:1046A00006281BD094F846100C2919D094F89100D4
:1046B000C0B194F89010E84A491CC9B284F890102F
:1046C000825C914244D384F89080072802D2401C37
:1046D00084F89100204601F0BCFF39E0012643E058
:1046E000012635E0B4F93400002801DB401CA08627
:1046F000206F68B3B4F93400B4F94430984227DB32
:10470000022A0AD0B4F84200B4F9402000EBE200DB
:10471000D24A515C8840A4F84400A4F83480B4F82C
:104720004C10B4F86000814200D208464108A4F859
:104730004E10E08EB1EB400F05D24FF6FF7101EA4B
:104740004001A4F84E10A4F84C00204601F0EEFE03
:10475000207E062808D1A07FC00605D5606AE968DA
:10476000081A282800D9761C207A000727D5207E31
:10477000042801D0072822D1B948D4F88C10EB685E
:104780000844B0FBFAF2606A181A824203D24FF072
:104790000109761C13E094F8922042F29F4312FB29
:1047A00003F201EBC201B1FBFAF1814207D22046CC
:1047B00001F02CFF94F89200401C84F89200207EB7
:1047C000032802D0092807D00BE0606AE968081ABC
:1047D000282806D9761C04E0616AE868401AF028A7
:1047E000F8D84EB32046FFF71DFFE0680FB1F86020
:1047F00000E0A861B9F1000F09D0A18B608BCDE971
:104800000001231D2246A16A206D01F04FFE2146C2
:10481000D4F81090D4F88860E4680220FFF77BFA9F
:1048200085F800801EB36FF009014846B04728782C
:1048300000287FF421AF1AE02746E468F87F401C87
:10484000C0B2F87797F82010884210D387F81F80FD
:1048500085F80080D7F8842032B13946386990470E
:1048600029780029E5D110B9384601F05CFD002C0B
:104870007FF406AF0026EC6914E0606AE968081A64
:10488000F02806D92046FFF7CDFEE06826B1F0609B
:1048900003E02646E46805E0E8612146E46802207A
:1048A000FFF739FA002CE8D1BDE8FC8770B50C465B
:1048B0000168A14202D1C96801600BE0654806E0C9
:1048C000C968A14203D1006AE168C16002E00162E7
:1048D0000029F5D100252046E560FFF7A3FE207EE4
:1048E0000A280AD0012808D0A07FC10705D040F0CF
:1048F0000200A077204601F016FD257670BD2DE957
:10490000FC470446007E534D4FF00009012789B350
:10491000042801D0072836D1616F21B9A18DA1F5F6
:104920003062683A2FD0A18B608BCDE90001231D46
:104930002246A16A206D01F0B9FD2046FFF772FE04
:10494000A869A04202D1C068A86107E0286228B126
:10495000C068A042FAD1296AE068C860C4F80C9027
:104960002F70207E042806D021460220FFF7D3F9BD
:10497000002099E707E00A202076E869E060EC6112
:1049800001F0F3FEF4E74FF00508082840D2DFE815
:1049900000F0041A252D2D3F3F35608B002678B19D
:1049A0002869A04202D1C068286107E0286228B1C6
:1049B000C068A042FAD1296AE068C860C4F80C90C7
:1049C0002146022007E02348002621461430FFF745
:1049D0006DFF21460320FFF79EF91EE01D480026CB
:1049E00021461830FFF762FF2F70E9E7204601F0FB
:1049F00047FA060009D184F8188006E0204601F045
:104A00003FFA060001D10920207634B116B104E046
:104A1000002602E0204601F086FC304644E7017E95
:104A2000012903D0817F41F010018177012166E7E0
:104A300070B5858D846AC18E631940F2B456026BDD
:104A4000B14200D931461144591A0BD4C585981A80
:104A500070BD00004C000020BB510108F05101085E
:104A6000B84C0A00A11A002901DD002100E0111B49
:104A7000C1850020ECE710B50446808D084480B263
:104A800040F66831A085884200D9A1852046FFF70D
:104A9000CFFF40F2DA21884208DBA07F40F002001D
:104AA000A0772046BDE8104001F03DBC10BD10B518
:104AB0001400084606D02189FFF7DDFF2046FFF7E6
:104AC0004FFA00E00BB1002010BDBDE81040A6E792
:104AD0002DE9F041456F044600206E7B6067E76F6B
:104AE0002FB100232A4621462069B84705E000235C
:104AF0002A4621461846FFF7DAFF6FF0090728B16A
:104B00000A3016D065670020BDE8F081B006FAD5FE
:104B1000A08DA0F53061683901D0401CA085E56FFB
:104B2000002DF0D000231A4621462069A8470A30FC
:104B3000E9D13846E8E72DE9F041FE4DA878401C60
:104B4000A8700027AC691EE094F82110A878814273
:104B500019D084F82100A07FC10709D040F00200DD
:104B6000A077204601F0DFFBA07F20F00300A077B4
:104B7000E668606F30B12F702046FFF7A9FF2878F4
:104B80000028DED13446002CDED1BDE710B5FFF79A
:104B9000D2FFE8484178491C4170C80702D0BDE8FF
:104BA00010405CE510BD10B50446007E6FF00C03AC
:104BB000012815D069B1A07F40F01000A0770AB19C
:104BC000012110E0606F90B1FFF7CAF90020606723
:104BD0000DE062B1032805D0042803D0072801D0D6
:104BE000184610BD00212046BDE8104087E6002091
:104BF00010BD2DE9FC470446007E0F460A282FD041
:104C0000CC4821461830D4F85090D4F82880266932
:104C1000D4F88850FFF74AFEC64901200870206F7B
:104C200008B1FFF7F6FCE06E08B1FFF7F2FC4FB1F8
:104C3000A18B608BCDE90001231D224641464846E9
:104C400001F034FC21460220FFF765F8002D12D058
:104C500002B03046AC46BDE8F0476FF0090160474E
:104C6000B44821461C30FFF721FE2146BDE8FC4731
:104C70000220FFF750B817E60121BAE7F0B5AE4DB4
:104C8000AC4A00234FF6FF764FF440474FF4804E76
:104C90009088411C9180B04200D197809488002078
:104CA00055F8201009680AE0B1F81AC0A44505D1EA
:104CB0005B1C9BB27345EBD30020F0BDC968002993
:104CC000F2D1401CC0B20428EAD3A0B2F0BD2DE955
:104CD000F0410446007E0D46042610B16FF0050039
:104CE00012E71AB9FFF7CAFF020005D0924F002160
:104CF00057F82100006814E06FF0010004E7438BCF
:104D000093420DD148B103683BB135B1D5F800C02D
:104D1000BCF1000F01D0634502D16FF00700F3E64C
:104D2000C0680028EBD1491CB142E1DB15B128680D
:104D300000B120607F4862830169E160046101F095
:104D400014FD0020E0E66FF00900704770B50446DE
:104D5000007E08B100207BE60320FEF7B2FF0500CD
:104D6000F9D020692861608B688301202876607EF5
:104D70006876207A40F002002872A07AA872607AE1
:104D8000687220682860608B80B16A480169A1421E
:104D900002D1C968016107E0016229B1C968A14275
:104DA000FAD1006AE168C1600020E060214602207B
:104DB000FEF7B1FF614868615E4814300168E96040
:104DC000056001F0D2FC284642E610B504460846CC
:104DD00002F02EF938B1008D28B1283880B2844213
:104DE00000D220460446204610BD5249D1E90202B5
:104DF0001044886070472DE9F0470446007E1E4647
:104E00000D4618B16FF00800BDE8F08735B128688D
:104E10006060A2832CB1206818B108E06FF0050033
:104E2000F2E7201D02F004F938B140682060B4F8C0
:104E30001A80B8F1000F03D006E06FF00300E3E73B
:104E4000FFF71CFF608348B3FFF7CFFF4FF0000967
:104E500044F8289F2946A062401E2062606340F605
:104E60006830A080E080C4F8089020874FF4067076
:104E7000E081FFF7AAFFE08100EB80004FF6FF71B1
:104E8000012701EA4000A784E084A665283C0221AE
:104E9000204600F08DFF060003D021E06FF00100F6
:104EA000B2E70220234D2076B8F1000F0FD0286919
:104EB000A04202D1C068286107E0286228B1C0681A
:104EC000A042FAD1296AE068C860C4F80C90A869C9
:104ED000E060AC6101F049FC2F70204601F023FA3C
:104EE000304691E7417670472DE9F04107460220B0
:104EF000FEF7E7FE0F4D040049D100221146EB6892
:104F0000E86906E0446A1C1B944201D3224601462C
:104F1000C0680028F6D111B10846FFF7ADFE0220A7
:104F2000FEF7CFFE064E04002DD186467F22714645
:104F3000EC6807E04C00002000520108474D0008D3
:104F400064AD0020A8690EE0437EBB420AD89342BC
:104F500008D8D0F824C0A4EB0C0CF44502D3E646E4
:104F600001461A46C0680028EED111B10846FFF785
:104F700083FE0220FEF7A5FE04003ED0B6F8CA006C
:104F8000401EA6F8CA0036F8CA0F401E3080942191
:104F900020460FF00AFA677641F68440A4F86600CE
:104FA0000023A4F8683040F66830A085E08563727D
:104FB000FF20A0724FF40670E0860620A4F844009B
:104FC000A4F84030A4F84200C01FA0860120A4F835
:104FD0004C001034FFF709FFA0642064A063E06474
:104FE000E8686061A8786074E373AFF23D50E066F2
:104FF0000E48E06784F88230103C204684E540206B
:1050000072E701617047C167704781677047C0F8F8
:105010008810704741617047C0F8841080F82020E4
:105020007047034951F820007047000000DD6D0013
:10503000C45101082DE9F041FE4D04464FF0000631
:105040002878C0067DD5B4F86030A16D676DE8683A
:105050005A18B7EB000C0BD4874202D12F69CF1B33
:1050600006D42F69B94217D16968C989994213D901
:105070006B68D989A4F86010B4F86270DB899F422C
:1050800001D2A4F8623060652869A06594F89100A7
:1050900061B108B184F89160A36C2969C81A00282D
:1050A00036DCA4F86460688840B12EE00028F3D1B3
:1050B00084F89060012084F89100EDE7B4F8607006
:1050C000A06D3844904220D1B4F9340000281CDB94
:1050D0008B421AD194F84700411CC9B2814201D9D0
:1050E00084F8471094F84700032809D9B4F84C0015
:1050F000E18E014489B2814201D9A4F84C10A8E0A4
:1051000002D1204601F050FAA3E084F84760A0E005
:1051100001287AD4226D8A1A002A76DCA27F5307EE
:1051200006D522F00402A277B4F84E20A4F84C2051
:1051300084F84660B4F84220B4F9403002EBE30250
:1051400000E0C2E0A4F84420A4F86400B4F86620AB
:105150001044A4F8660084F84760A164207E042807
:1051600033D3B4F84C00B4F84E108842E18E04D228
:10517000014489B2814207D827E0494391FBF0F10D
:10518000014489B2884220D2A4F84C101DE038684E
:1051900020677868FEF7F0FFB4F8640050B1386912
:1051A0008089FDF7D7FCC00704D0B4F86400401E26
:1051B000A4F864007868FEF7DFFFB4F86810081AF6
:1051C000A4F868003846FFF716FA206FC8B10069E6
:1051D0004068FDF7C3FC0746206F00698089FDF732
:1051E000B9FC800700D001203844276F3989084472
:1051F0002969401A0028CADD1FB1A686E67728E093
:1052000003E04FF0FF30A086F8E7A4F8646020E0E8
:105210003868E06608B9A4F86A607868FEF7ACFF01
:10522000B4F8640050B138698089FDF793FCC00779
:1052300004D0B4F86400401EA4F864007868FEF757
:105240009BFFB4F86810081AA4F868003846FFF706
:10525000D2F9E06EB8B100694068FDF77FFC0746FF
:10526000E06E00698089FDF775FC800700D00120A1
:105270003844E76E398901442869411A03D4216D05
:10528000401A0028C4DDA06BF8B1E16B2A69891AC5
:105290001BD569490988081AB4F94010A0EBE10050
:1052A00000B2014409B2A4F84010002801DA4042DB
:1052B00000B2B4F94220A0EBA2001044A4F84200CE
:1052C00000EBE100A4F84400A6636B88002B7DD0BE
:1052D000207E07287AD2A16AEA68584F881A0128E6
:1052E00025D41344CB1A5B1C002B20DC7A6851892F
:1052F00081420ADA1189091A8BB203E013815681BF
:105300001268401A51898142F8DB404201B21046CE
:10531000FEF702FFAA89A06A3989821A891A39819F
:10532000E86039694860A16A401A07D570E0501AF0
:1053300004D5A07F40F00200A07769E0A08D0A1894
:10534000E868821A521C002A62DC814260D1386906
:105350008089FDF7FFFB800700D0012039890844D0
:1053600080B26880A18D81422CD238698089FDF796
:10537000F1FBC0070DD038698089FDF7EBFB00F029
:105380003E00FDF7E5FB39698A8922F47C5210431F
:105390008881A08D388138698089FDF7DBFB800723
:1053A00002D53889401E388139897868FEF78DFE2C
:1053B00038698089FDF7CEFB800700D0012039894C
:1053C00008446880E96880B2014400E025E0A162F9
:1053D000A18D081AA0852046FFF72AFB786801896D
:1053E00009B168617E6038698089FDF7B3FBC00749
:1053F00003D0687840F020006870A07FC10702D019
:1054000020F0010014E040F00100A077BDE8F08139
:105410002046BDE8F04100F008BFA16AE868421AE2
:1054200005D4A28D1144401A401C0028EEDDA07F57
:1054300006E000007000002058000020D8AE0020D8
:1054400040F00200E1E770B5FE4E0546706800F1DD
:1054500014048089FDF77EFB0521B1EB103F1ED2BD
:1054600070688089FDF776FB6FF0040101EB103066
:10547000090C01EA8000002140F2B4520DE0635CA7
:10548000002B0CD0012B0BD0022B04EB010309D015
:105490005B78002B03D0194489B28142EFD370BDF1
:1054A000491CF9E75E78042EF9D1091D8142F6D82E
:1054B0005B885BBA934200D803B91346EB86EBE7EF
:1054C0002DE9FC5FDF4D0446287841071CD5207E7E
:1054D000022814D0A06AE9680A1A14D4A28D1044D4
:1054E000081A00280FDC687840F008006870A07F78
:1054F00020F00100A0776FF00A00BDE8FC9F206D4E
:1055000029698842EFD063E1800709D5207E02280F
:1055100006D0032804D0A07F40F00200A07757E116
:10552000A07FC00602D4C84800686062002084F8EA
:1055300092002046FFF787FF207EDFF810B3DFF8E8
:105540001083C44FC44E801E4FF001094FF00A0A69
:105550000828D8D2DFE800F0046AB9BDF4B9F2F146
:105560002878C106CFD5800754D5206F00694068E0
:10557000FDF7F4FA2A69401C904248D134F8660FCE
:10558000401C24F83E09E868411C21602262A160A9
:105590006968401ECA892287C9896187E062042040
:1055A00004F8100C34F80E0FA4F13201363CFFF76A
:1055B0000CFC00EB80014FF6FF72E08602EA41012D
:1055C000A4F84E10B4F84C10012900D1400024F882
:1055D0004C0FA08B401EA083606A01686162FFF7D8
:1055E0000AF8606A4C3C70B10020A08684F846003E
:1055F000D4F88030002B8ED00022214620699847B5
:105600000A302DD087E74FF0FF30A086F0E72878EA
:10561000C00684D56868914B914A01884088CDE9DD
:1056200000016988E8680144286940E02878C106DB
:1056300040D5A16C2869411A01292ED4216D411A47
:1056400000292ADC04202076636933B10022214638
:105650002069984738B10A3002D02046FFF70CFB8A
:105660006FF0090049E7B4F84C602046FFF7E2FC10
:10567000B4F8640010B1401EA4F86400E08E012E5E
:1056800000D14000A4F84C006878800611D5A07FB6
:1056900040F00200A07707204DE069686F4B0A8850
:1056A0004988CDE900126A88E96811446C4A00F023
:1056B000FDFE8DE0800707D5A06AE968401E88429C
:1056C00002D1204600F048FF82E02046FFF7B2FCFE
:1056D000DAE72046FFF7AEFC6878800628784FEAC4
:1056E000C06021D5002819DA206D2969884215D1BA
:1056F000A07F40F00200A0772046FEF793FF3868B5
:10570000A04202D1C068386048E03060F0B3C068A1
:10571000A042FAD13168E068C8603FE0A07F40F065
:105720000200A077082006E0002851DA206D2969E0
:1057300088424DD1062020764AE03BE016E0FFE7A4
:105740002046FFF777FC6878800641D5A07F40F0BF
:105750000200A0772046FEF765FF3868A042D1D04E
:10576000306098B1C068A042FAD1D3E72046FFF775
:1057700061FC2878C0062BD5206D2969884227D185
:105780002046FEF74FFF3868A04200E006E0B9D09F
:10579000306018B1C068A042FAD1BBE78BF8009026
:1057A00084F818A0D8F80010E160C8F8004000F0B4
:1057B000DCFF0DE02046FFF73DFC2878C00607D54A
:1057C000206D2969884203D1687840F01000687024
:1057D000002092E67CB51B4D06462878410775D41B
:1057E000C1060DD568681D4B1D4A01884088CDE96A
:1057F00000016988E8680144286900F057FE65E007
:10580000800763D5707EFFF76FFB040051D014480A
:1058100000682060708B6083104800686060696871
:105820000888A08303202076EA681046521CA262F2
:105830002263CA89A4F86020C989A4F86210A4F878
:105840004E200FE070000020580000204C00002087
:1058500068000020640000206C000020A8000020E8
:10586000AC000020401E6065306920617069606195
:10587000307A00F08C002072FE480168E16004601C
:1058800000F073FFFC49012008702046FFF7DBFDA4
:10589000E08E211DFFF799FAE0861221204600F0E4
:1058A00087FA05000DD000212046FFF7A2F928460F
:1058B0007CBDF24931F8840F401C08804FF0FF3066
:1058C0007CBD2046BDE87C4000F02DBD00207CBDA5
:1058D0002DE9FC5FE94E0746E94DB6F87A000C4623
:1058E000401CA6F87A007868A860017801F00F01E2
:1058F00000EB81006860880041423846FEF70CFCEE
:10590000D8B93889142818D3DFF878832146D8F815
:10591000000001F009FDB0B998F80000C0F30310D1
:105920000E2810D068688089FDF714F9000B8000FC
:1059300041423846FEF7F0FB78B1B6F88200401CD1
:10594000A6F8820004E0B6F88800401CA6F888009B
:1059500036F87E0F401C30805AE168680088FDF7F9
:10596000F9F80146686801804088FDF7F3F80146C0
:10597000686841804068FDF7F1F801466868416059
:10598000E9608068FDF7EAF801466868816029618E
:10599000C089FDF7DFF801466868C1818089FDF79D
:1059A000D9F800F03F0028703989820700D0012221
:1059B00011446980DFF8BC92B3490022D9F8003065
:1059C000D1F800B01C466968D8F800A047E000BFD5
:1059D000B4F81CC0B1F80080C4453ED1B4F81AC078
:1059E000B1F80280C44538D1D4F80480D84534D108
:1059F000D4F80080D04530D132B1D4F80CC0C2F810
:105A00000CC0E360C9F800405CB3DFF880924FF04F
:105A100000080007C9F80080B7F808C0A9F808C056
:105A2000C9F80470C9F81010C5F8148085F8018011
:105A300003D5787B40F001007873606FF0B32046A7
:105A4000FFF746F80A3003D0606FB8B36888A8B390
:105A500036F87E0F401C3080B0E02246E468002C0F
:105A6000B6D18B48006811E0828B0B889A420CD12A
:105A7000428B4B889A4208D143685B4505D1036845
:105A8000534502D100F0C9F8C2E0C0680028EBD14C
:105A9000804C00222068034613E000BFB0F81AC013
:105AA000B1F80280C44508D1D0F800C0D4450BD06D
:105AB000002808D0BCF1000F08D000E00EE002463C
:105AC000C0680028EAD189E000287DD01AB1C168F9
:105AD000D160C3602060FFF77DFE99E02046AC6195
